{"contracts/MemePool.sol":{"MemePool":{"abi":[{"inputs":[{"internalType":"address","name":"_token","type":"address"},{"internalType":"address","name":"_factory","type":"address"},{"internalType":"address","name":"_feeRecipient","type":"address"},{"internalType":"uint256","name":"_feeBps","type":"uint256"},{"internalType":"uint256","name":"_virtualEthReserve","type":"uint256"},{"internalType":"uint256","name":"_virtualTokenReserve","type":"uint256"},{"internalType":"uint256","name":"_graduationTargetEth","type":"uint256"},{"internalType":"address","name":"_dexRouter","type":"address"},{"internalType":"address","name":"_lpRecipient","type":"address"}],"stateMutability":"payable","type":"constructor"},{"anonymous":false,"inputs":[{"indexed":true,"internalType":"address","name":"buyer","type":"address"},{"indexed":false,"internalType":"uint256","name":"ethIn","type":"uint256"},{"indexed":false,"internalType":"uint256","name":"feePaid","type":"uint256"},{"indexed":false,"internalType":"uint256","name":"tokensOut","type":"uint256"}],"name":"Buy","type":"event"},{"anonymous":false,"inputs":[{"indexed":true,"internalType":"address","name":"recipient","type":"address"},{"indexed":false,"internalType":"uint256","name":"feeBps","type":"uint256"}],"name":"FeeConfigUpdated","type":"event"},{"anonymous":false,"inputs":[{"indexed":true,"internalType":"address","name":"pair","type":"address"},{"indexed":false,"internalType":"uint256","name":"tokenMigrated","type":"uint256"},{"indexed":false,"internalType":"uint256","name":"ethMigrated","type":"uint256"},{"indexed":false,"internalType":"uint256","name":"lpMinted","type":"uint256"},{"indexed":false,"internalType":"uint256","name":"timestamp","type":"uint256"}],"name":"Graduated","type":"event"},{"anonymous":false,"inputs":[{"indexed":true,"internalType":"address","name":"caller","type":"address"},{"indexed":false,"internalType":"uint256","name":"ethReserve","type":"uint256"},{"indexed":false,"internalType":"uint256","name":"tokenReserve","type":"uint256"}],"name":"InstantGraduationTriggered","type":"event"},{"anonymous":false,"inputs":[{"indexed":false,"internalType":"address","name":"dexRouter","type":"address"},{"indexed":false,"internalType":"address","name":"lpRecipient","type":"address"},{"indexed":false,"internalType":"uint256","name":"graduationTargetEth","type":"uint256"}],"name":"MigrationConfigUpdated","type":"event"},{"anonymous":false,"inputs":[{"indexed":false,"internalType":"uint256","name":"tokenLiquidity","type":"uint256"}],"name":"PoolSeeded","type":"event"},{"anonymous":false,"inputs":[{"indexed":true,"internalType":"address","name":"seller","type":"address"},{"indexed":false,"internalType":"uint256","name":"tokensIn","type":"uint256"},{"indexed":false,"internalType":"uint256","name":"ethOut","type":"uint256"},{"indexed":false,"internalType":"uint256","name":"feePaid","type":"uint256"}],"name":"Sell","type":"event"},{"inputs":[],"name":"BPS_DENOMINATOR","outputs":[{"internalType":"uint256","name":"","type":"uint256"}],"stateMutability":"view","type":"function"},{"inputs":[{"internalType":"uint256","name":"minTokensOut","type":"uint256"}],"name":"buy","outputs":[{"internalType":"uint256","name":"tokensOut","type":"uint256"}],"stateMutability":"payable","type":"function"},{"inputs":[{"internalType":"address","name":"newRecipient","type":"address"},{"internalType":"uint256","name":"newFeeBps","type":"uint256"}],"name":"configureFees","outputs":[],"stateMutability":"nonpayable","type":"function"},{"inputs":[{"internalType":"address","name":"newDexRouter","type":"address"},{"internalType":"address","name":"newLpRecipient","type":"address"},{"internalType":"uint256","name":"newTargetEth","type":"uint256"}],"name":"configureMigration","outputs":[],"stateMutability":"nonpayable","type":"function"},{"inputs":[],"name":"dexRouter","outputs":[{"internalType":"address","name":"","type":"address"}],"stateMutability":"view","type":"function"},{"inputs":[],"name":"ethReserve","outputs":[{"internalType":"uint256","name":"","type":"uint256"}],"stateMutability":"view","type":"function"},{"inputs":[],"name":"factory","outputs":[{"internalType":"address","name":"","type":"address"}],"stateMutability":"view","type":"function"},{"inputs":[],"name":"feeBps","outputs":[{"internalType":"uint256","name":"","type":"uint256"}],"stateMutability":"view","type":"function"},{"inputs":[],"name":"feeRecipient","outputs":[{"internalType":"address","name":"","type":"address"}],"stateMutability":"view","type":"function"},{"inputs":[],"name":"graduateNow","outputs":[],"stateMutability":"nonpayable","type":"function"},{"inputs":[],"name":"graduated","outputs":[{"internalType":"bool","name":"","type":"bool"}],"stateMutability":"view","type":"function"},{"inputs":[],"name":"graduatedAt","outputs":[{"internalType":"uint256","name":"","type":"uint256"}],"stateMutability":"view","type":"function"},{"inputs":[],"name":"graduationTargetEth","outputs":[{"internalType":"uint256","name":"","type":"uint256"}],"stateMutability":"view","type":"function"},{"inputs":[],"name":"lpRecipient","outputs":[{"internalType":"address","name":"","type":"address"}],"stateMutability":"view","type":"function"},{"inputs":[],"name":"migratedPair","outputs":[{"internalType":"address","name":"","type":"address"}],"stateMutability":"view","type":"function"},{"inputs":[{"internalType":"uint256","name":"ethAmountIn","type":"uint256"}],"name":"quoteBuy","outputs":[{"internalType":"uint256","name":"tokensOut","type":"uint256"},{"internalType":"uint256","name":"feePaid","type":"uint256"}],"stateMutability":"view","type":"function"},{"inputs":[{"internalType":"uint256","name":"tokenAmountIn","type":"uint256"}],"name":"quoteSell","outputs":[{"internalType":"uint256","name":"ethOut","type":"uint256"},{"internalType":"uint256","name":"feePaid","type":"uint256"}],"stateMutability":"view","type":"function"},{"inputs":[{"internalType":"uint256","name":"tokenAmount","type":"uint256"}],"name":"seed","outputs":[],"stateMutability":"nonpayable","type":"function"},{"inputs":[],"name":"seeded","outputs":[{"internalType":"bool","name":"","type":"bool"}],"stateMutability":"view","type":"function"},{"inputs":[{"internalType":"uint256","name":"tokenAmountIn","type":"uint256"},{"internalType":"uint256","name":"minEthOut","type":"uint256"}],"name":"sell","outputs":[{"internalType":"uint256","name":"ethOut","type":"uint256"}],"stateMutability":"nonpayable","type":"function"},{"inputs":[],"name":"spotPrice","outputs":[{"internalType":"uint256","name":"","type":"uint256"}],"stateMutability":"view","type":"function"},{"inputs":[],"name":"targetProgressBps","outputs":[{"internalType":"uint256","name":"","type":"uint256"}],"stateMutability":"view","type":"function"},{"inputs":[],"name":"token","outputs":[{"internalType":"address","name":"","type":"address"}],"stateMutability":"view","type":"function"},{"inputs":[],"name":"tokenReserve","outputs":[{"internalType":"uint256","name":"","type":"uint256"}],"stateMutability":"view","type":"function"},{"inputs":[],"name":"triggerGraduation","outputs":[],"stateMutability":"nonpayable","type":"function"},{"inputs":[],"name":"virtualEthReserve","outputs":[{"internalType":"uint256","name":"","type":"uint256"}],"stateMutability":"view","type":"function"},{"inputs":[],"name":"virtualTokenReserve","outputs":[{"internalType":"uint256","name":"","type":"uint256"}],"stateMutability":"view","type":"function"}],"evm":{"bytecode":{"linkReferences":{},"object":"601f62001e5e38819003918201601f19166101009081019290916001600160401b03841183851017620003b257816101209284926040968752833981010312620003ad576200004e81620003c8565b6020906200005e828401620003c8565b916200006c858501620003c8565b926060850151608086015160a08701519160c088015193620000a06101006200009860e08c01620003c8565b9a01620003c8565b6001600160a01b03989097908982161562000378578983161562000341578916998a15620002fd5761012c8411620002ca57841562000286578515620002425786156200020c5789169687620001c1575b5060a05260805260018060a01b03199788600054161760005560015560c05260e052600455836005541617600555169060065416176006553460025551611a809081620003de8239608051818181610723015281816107a50152818161096801528181610cbc0152610dd4015260a051818181610161015281816102f80152818161054501528181610802015261148a015260c051818181610ac4015281816111040152818161193101526119c7015260e051818181610c43015281816110d10152818161196601526119f80152f35b898916620000f1576064908c519062461bcd60e51b82526004820152601560248201527f6c7020726563697069656e7420726571756972656400000000000000000000006044820152fd5b8b5162461bcd60e51b815260048101899052600f60248201526e1d185c99d95d081c995c5d5a5c9959608a1b6044820152606490fd5b8b5162461bcd60e51b815260048101899052601660248201527f7669727475616c20746f6b656e207265717569726564000000000000000000006044820152606490fd5b8b5162461bcd60e51b815260048101899052601460248201527f7669727475616c206574682072657175697265640000000000000000000000006044820152606490fd5b8b5162461bcd60e51b815260048101899052600c60248201526b0cccaca40e8dede40d0d2ced60a31b6044820152606490fd5b8b5162461bcd60e51b815260048101899052601660248201527f66656520726563697069656e74207265717569726564000000000000000000006044820152606490fd5b8b5162461bcd60e51b815260048101899052601060248201526f199858dd1bdc9e481c995c5d5a5c995960821b6044820152606490fd5b8b5162461bcd60e51b815260048101899052600e60248201526d1d1bdad95b881c995c5d5a5c995960921b6044820152606490fd5b600080fd5b634e487b7160e01b600052604160045260246000fd5b51906001600160a01b0382168203620003ad5756fe608060408181526004918236101561001657600080fd5b600092833560e01c9182630758d92414610f00575081631ad15bbc14610ed757816324a9d85314610eb85781632521772414610dbc5781632760eca114610d9f5781632a2c697214610c8d578163334041a614610c66578163343ee3b714610c2b578163398482d814610c075781634329742d14610b57578163452e68dd14610b2e5781634690484014610b065781634beb394c14610ae757816352b86d2b14610aac5781637f544e4914610a8d5781638c575aa31461092b578163955648371461077d578163a64190c414610752578163c45a01551461070e578163cbcb3171146106ef578163d62ccb3f146106d0578163d79875eb14610463578163d96a094a146101fa578163e1a45218146101dd578163e7c2b772146101b6578163f95a02d014610194575063fc0c546a1461014e57600080fd5b34610190578160031936011261019057517f00000000000000000000000000000000000000000000000000000000000000006001600160a01b03168152602090f35b5080fd5b9050346101b257826003193601126101b25760209250549051908152f35b8280fd5b50503461019057816003193601126101905760209060ff60065460a81c1690519015158152f35b505034610190578160031936011261019057602090516127108152f35b91905060209283600319360112610460576006549061021f60ff8360b01c1615610f7b565b60ff60b01b19918216600160b01b1760068190556102539060ff9061024960a082901c8316610fb4565b60a81c161561129a565b341561042e5761271061026860015434611032565b04906102748234611150565b9461027e86611923565b9561028a8715156112d2565b6102978235881015611314565b600354908188116103f2576102f3926102c1898b946102b982956002546110bc565b600255611150565b600355856103cb575b875163a9059cbb60e01b8152339181019182526020820192909252909283918291604090910190565b0381857f00000000000000000000000000000000000000000000000000000000000000006001600160a01b03165af19182156103c0579061033992610393575b50611363565b7fbeae048c6d270d9469f86cf6e8fedda3c60ad770f16c24c9fc131c8e9a09101d83518061037b87339534846040919493926060820195825260208201520152565b0390a2610386611a28565b6006541660065551908152f35b6103b39150873d89116103b9575b6103ab8183611204565b81019061134b565b38610333565b503d6103a1565b8551903d90823e3d90fd5b6103ed858080808a60018060a01b038254165af16103e76113a7565b506113e7565b6102ca565b865162461bcd60e51b81528084018a90526016602482015275696e73756666696369656e74206c697175696469747960501b6044820152606490fd5b825162461bcd60e51b8152808501869052600c60248201526b195d1a081c995c5d5a5c995960a21b6044820152606490fd5b80fd5b919050346101b257806003193601126101b25781356006549061048c60ff8360b01c1615610f7b565b60ff60b01b19918216600160b01b1760068190556104b69060ff9061024960a082901c8316610fb4565b6104c18115156111c0565b6104ca816119bb565b946104d68615156112d2565b600254861161068d576127106104ee60015488611032565b04956104fa8782611150565b95610509602435881015611314565b85516323b872dd60e01b81523382820190815230602082810191909152604082018790526001600160a01b0394929182908190606001038188887f0000000000000000000000000000000000000000000000000000000000000000165af19081156106835761059a929161058391879161066a5750611363565b61058f866003546110bc565b600355600254611150565b600255828080808a335af16105ad6113a7565b5015610631575086807f846c37eef631e0943682d87352ec117c20008eb7f425c9b85ac011a6d4774cc0936106049360209a610614575b505086519485525060208401879052604084015233929081906060820190565b0390a26006541660065551908152f35b81806106299481938254165af16103e76113a7565b8038806105e4565b606490602087519162461bcd60e51b83528201526013602482015272195d1a081d1c985b9cd9995c8819985a5b1959606a1b6044820152fd5b6103b3915060203d6020116103b9576103ab8183611204565b88513d87823e3d90fd5b835162461bcd60e51b8152602081870152601860248201527f696e73756666696369656e7420657468207265736572766500000000000000006044820152606490fd5b5050346101905781600319360112610190576020906002549051908152f35b5050346101905781600319360112610190576020906003549051908152f35b505034610190578160031936011261019057517f00000000000000000000000000000000000000000000000000000000000000006001600160a01b03168152602090f35b905082346104605760203660031901126104605750610771903561123c565b82519182526020820152f35b8391503461019057602090816003193601126101b2578035906001600160a01b03906107cc337f0000000000000000000000000000000000000000000000000000000000000000841614610f40565b6006549160ff8360a01c166108f757846024916107ea8615156111c0565b88516370a0823160e01b8152308582015292839182907f0000000000000000000000000000000000000000000000000000000000000000165afa9081156108ed5790849187916108b8575b501061087f575060ff60a01b1916600160a01b176006556003819055925192835290917fa71ed34ff06af8d6865a8f541aae52d72fa89f0e5ee15f01d48fa6c62c8569149190a180f35b855162461bcd60e51b81529081018490526013602482015272696e73756666696369656e7420746f6b656e7360681b6044820152606490fd5b809250868092503d83116108e6575b6108d18183611204565b810103126108e25783905188610835565b8580fd5b503d6108c7565b87513d88823e3d90fd5b865162461bcd60e51b8152808301869052600e60248201526d185b1c9958591e481cd95959195960921b6044820152606490fd5b8391503461019057606036600319011261019057610947610f25565b602435916001600160a01b03908184168085036108e2576044359261098f817f0000000000000000000000000000000000000000000000000000000000000000163314610f40565b600654906109a360ff8360a81c1615610ff2565b8415610a585785169081610a18575b600580546001600160a01b0319908116939093179055161760065581905593516001600160a01b039182168152911660208201526040810192909252907fbcdc4bff84f936019028a7bcbef6b449550d6334606377b822720e57e94276c490606090a180f35b826109b257885162461bcd60e51b815260208186015260156024820152741b1c081c9958da5c1a595b9d081c995c5d5a5c9959605a1b6044820152606490fd5b885162461bcd60e51b8152602081860152600f60248201526e1d185c99d95d081c995c5d5a5c9959608a1b6044820152606490fd5b5050346101905781600319360112610190576020906008549051908152f35b505034610190578160031936011261019057602090517f00000000000000000000000000000000000000000000000000000000000000008152f35b905082346104605760203660031901126104605750610771903561115d565b505034610190578160031936011261019057905490516001600160a01b039091168152602090f35b50503461019057816003193601126101905760065490516001600160a01b039091168152602090f35b9050346101b257826003193601126101b25760065491610b7d60ff8460b01c1615610f7b565b60ff60b01b19928316600160b01b176006819055610bb19060ff90610ba760a082901c8316610fb4565b60a81c1615610ff2565b600254825411610bcf575050610bc5611448565b6006541660065580f35b906020606492519162461bcd60e51b835282015260126024820152711d185c99d95d081b9bdd081c995858da195960721b6044820152fd5b505034610190578160031936011261019057602090610c246110c9565b9051908152f35b505034610190578160031936011261019057602090517f00000000000000000000000000000000000000000000000000000000000000008152f35b50503461019057816003193601126101905760209060ff60065460a01c1690519015158152f35b919050346101b257806003193601126101b257610ca8610f25565b60243591906001600160a01b0390610ce3337f0000000000000000000000000000000000000000000000000000000000000000841614610f40565b16928315610d685761012c8311610d37575083546001600160a01b031916831784556001829055519081527fe42708d93b95810922305119a3271ca42233da9ebe1e1e503f0e887817a32c7a90602090a280f35b6020606492519162461bcd60e51b8352820152600c60248201526b0cccaca40e8dede40d0d2ced60a31b6044820152fd5b6020606492519162461bcd60e51b835282015260126024820152711c9958da5c1a595b9d081c995c5d5a5c995960721b6044820152fd5b505034610190578160031936011261019057602090610c2461107b565b9050346101b257826003193601126101b257610e02337f00000000000000000000000000000000000000000000000000000000000000006001600160a01b031614610f40565b60065491610e1660ff8460b01c1615610f7b565b60ff60b01b19928316600160b01b176006819055610e409060ff90610ba760a082901c8316610fb4565b600254918215610e8557507f5d6dc6b9835f5448ae2351719684f59735b30dfa8e62677cc6f9e98bd4c08f7f90600354815193845260208401523392a2610bc5611448565b6020606492519162461bcd60e51b8352820152600e60248201526d6e6f20657468207265736572766560901b6044820152fd5b5050346101905781600319360112610190576020906001549051908152f35b50503461019057816003193601126101905760075490516001600160a01b039091168152602090f35b8490346101905781600319360112610190576005546001600160a01b03168152602090f35b600435906001600160a01b0382168203610f3b57565b600080fd5b15610f4757565b60405162461bcd60e51b815260206004820152600c60248201526b6f6e6c7920666163746f727960a01b6044820152606490fd5b15610f8257565b60405162461bcd60e51b815260206004820152600a6024820152697265656e7472616e637960b01b6044820152606490fd5b15610fbb57565b60405162461bcd60e51b815260206004820152600f60248201526e1c1bdbdb081b9bdd081cd959591959608a1b6044820152606490fd5b15610ff957565b60405162461bcd60e51b8152602060048201526011602482015270185b1c9958591e4819dc98591d585d1959607a1b6044820152606490fd5b8181029291811591840414171561104557565b634e487b7160e01b600052601160045260246000fd5b8115611065570490565b634e487b7160e01b600052601260045260246000fd5b60045480156110b6576002546127109182820291808304841490151715611045576110a59161105b565b908082116110b1575090565b905090565b50600090565b9190820180921161104557565b6110f66003547f0000000000000000000000000000000000000000000000000000000000000000906110bc565b80156110b6576111296002547f0000000000000000000000000000000000000000000000000000000000000000906110bc565b90670de0b6b3a7640000918281029281840414901517156110455761114d9161105b565b90565b9190820391821161104557565b60065460ff8160a01c16159081156111b2575b5080156111aa575b6111a15761119e61119961271061119160015485611032565b048093611150565b611923565b91565b50600090600090565b508015611178565b60ff915060a81c1638611170565b156111c757565b60405162461bcd60e51b81526020600482015260156024820152741d1bdad95b88185b5bdd5b9d081c995c5d5a5c9959605a1b6044820152606490fd5b90601f8019910116810190811067ffffffffffffffff82111761122657604052565b634e487b7160e01b600052604160045260246000fd5b60065460ff8160a01c161590811561128c575b508015611284575b6111a157611264906119bb565b80156111a15761119e61271061127c60015484611032565b048092611150565b508015611257565b60ff915060a81c163861124f565b156112a157565b60405162461bcd60e51b815260206004820152600960248201526819dc98591d585d195960ba1b6044820152606490fd5b156112d957565b60405162461bcd60e51b81526020600482015260136024820152721a5b9cdd59999a58da595b9d081bdd5d1c1d5d606a1b6044820152606490fd5b1561131b57565b60405162461bcd60e51b8152602060048201526008602482015267736c69707061676560c01b6044820152606490fd5b90816020910312610f3b57518015158103610f3b5790565b1561136a57565b60405162461bcd60e51b81526020600482015260156024820152741d1bdad95b881d1c985b9cd9995c8819985a5b1959605a1b6044820152606490fd5b3d156113e2573d9067ffffffffffffffff821161122657604051916113d6601f8201601f191660200184611204565b82523d6000602084013e565b606090565b156113ee57565b60405162461bcd60e51b8152602060048201526013602482015272199959481d1c985b9cd9995c8819985a5b1959606a1b6044820152606490fd5b90816020910312610f3b57516001600160a01b0381168103610f3b5790565b6005546001600160a01b039081169081156118e957600160a81b60ff60a81b1960065416176006554260085560035491600254906000928360035583600255807f0000000000000000000000000000000000000000000000000000000000000000169360409283518263095ea7b360e01b80835260049384840152602492828482015289816044816020998a945af180156118df579186918c936118c2575b50600554895191825288166001600160a01b0316868201908152602081019390935291829081906040010381858d5af18015611888576118a5575b50846005541694806006541695610e1042018042116118925760c48b8b6060948f948d519c8d96879563f305d71960e01b87528d8701528b860152896044860152896064860152608485015260a48401525af19788156118885782998397849a611844575b50600554895163c45a015560e01b815290841688828981845afa91821561181b578892918a918893611825575b508c516315ab88c960e31b815293849182905afa91821561181b578389878e95948d948b966117f5575b508160449495969751978896879563e6a4390560e01b8752860152168c840152165afa9081156117eb57918489928e9488916117be575b50169d8e6bffffffffffffffffffffffff60a01b60075416176007558381116116ed575b50505050868111611683575b505085519788525050508401528201524260608201527f71aa8c3702dbbc54247a4e6446450e64a46250dd72707a247ddb01d72eaef44590608090a2565b828092611691898394611150565b908254165af161169f6113a7565b50156116ad57808080611645565b60189060649386519362461bcd60e51b85528401528201527f6574682064757374207472616e73666572206661696c656400000000000000006044820152fd5b611734936116fa91611150565b86548c5163a9059cbb60e01b81529087166001600160a01b03168a8201908152602081019290925293849291839189918391604090910190565b03925af19081156117b4578491611797575b50156117555789863880611639565b875162461bcd60e51b8152808601879052601a818601527f746f6b656e2064757374207472616e73666572206661696c65640000000000006044820152606490fd5b6117ae9150873d89116103b9576103ab8183611204565b38611746565b89513d86823e3d90fd5b6117de9150843d86116117e4575b6117d68183611204565b810190611429565b38611615565b503d6117cc565b8a513d87823e3d90fd5b8596506118128391604496973d8a116117e4576117d68183611204565b969594506115de565b8b513d88823e3d90fd5b61183d919350823d84116117e4576117d68183611204565b91386115b4565b9a50985095506060893d606011611880575b8161186360609383611204565b810103126101905788519587868b01519a01519699969838611587565b3d9150611856565b87513d84823e3d90fd5b5050634e487b7160e01b82525060118352fd5b6118bb90853d87116103b9576103ab8183611204565b5038611522565b6118d890833d85116103b9576103ab8183611204565b50386114e7565b88513d85823e3d90fd5b60405162461bcd60e51b815260206004820152601260248201527119195e081c9bdd5d195c881b9bdd081cd95d60721b6044820152606490fd5b80156110b6576119566002547f0000000000000000000000000000000000000000000000000000000000000000906110bc565b906119a26003549261199c61198b7f0000000000000000000000000000000000000000000000000000000000000000866110bc565b936119968584611032565b926110bc565b9061105b565b808211156119b3576110a591611150565b505050600090565b600254906119a26119ec7f0000000000000000000000000000000000000000000000000000000000000000846110bc565b9161199c611a1d6003547f0000000000000000000000000000000000000000000000000000000000000000906110bc565b916119968386611032565b60ff60065460a81c16611a485760025460045411611a4857611a48611448565b56fea2646970667358221220a2d2c21743871442ce4b02c5554bb646ad2f4caaae2b91120a487832fdc24a2864736f6c63430008180033","opcodes":"PUSH1 0x1F PUSH3 0x1E5E CODESIZE DUP2 SWAP1 SUB SWAP2 DUP3 ADD PUSH1 0x1F NOT AND PUSH2 0x100 SWAP1 DUP2 ADD SWAP3 SWAP1 SWAP2 PUSH1 0x1 PUSH1 0x1 PUSH1 0x40 SHL SUB DUP5 GT DUP4 DUP6 LT OR PUSH3 0x3B2 JUMPI DUP2 PUSH2 0x120 SWAP3 DUP5 SWAP3 PUSH1 0x40 SWAP7 DUP8 MSTORE DUP4 CODECOPY DUP2 ADD SUB SLT PUSH3 0x3AD JUMPI PUSH3 0x4E DUP2 PUSH3 0x3C8 JUMP JUMPDEST PUSH1 0x20 SWAP1 PUSH3 0x5E DUP3 DUP5 ADD PUSH3 0x3C8 JUMP JUMPDEST SWAP2 PUSH3 0x6C DUP6 DUP6 ADD PUSH3 0x3C8 JUMP JUMPDEST SWAP3 PUSH1 0x60 DUP6 ADD MLOAD PUSH1 0x80 DUP7 ADD MLOAD PUSH1 0xA0 DUP8 ADD MLOAD SWAP2 PUSH1 0xC0 DUP9 ADD MLOAD SWAP4 PUSH3 0xA0 PUSH2 0x100 PUSH3 0x98 PUSH1 0xE0 DUP13 ADD PUSH3 0x3C8 JUMP JUMPDEST SWAP11 ADD PUSH3 0x3C8 JUMP JUMPDEST PUSH1 0x1 PUSH1 0x1 PUSH1 0xA0 SHL SUB SWAP9 SWAP1 SWAP8 SWAP1 DUP10 DUP3 AND ISZERO PUSH3 0x378 JUMPI DUP10 DUP4 AND ISZERO PUSH3 0x341 JUMPI DUP10 AND SWAP10 DUP11 ISZERO PUSH3 0x2FD JUMPI PUSH2 0x12C DUP5 GT PUSH3 0x2CA JUMPI DUP5 ISZERO PUSH3 0x286 JUMPI DUP6 ISZERO PUSH3 0x242 JUMPI DUP7 ISZERO PUSH3 0x20C JUMPI DUP10 AND SWAP7 DUP8 PUSH3 0x1C1 JUMPI JUMPDEST POP PUSH1 0xA0 MSTORE PUSH1 0x80 MSTORE PUSH1 0x1 DUP1 PUSH1 0xA0 SHL SUB NOT SWAP8 DUP9 PUSH1 0x0 SLOAD AND OR PUSH1 0x0 SSTORE PUSH1 0x1 SSTORE PUSH1 0xC0 MSTORE PUSH1 0xE0 MSTORE PUSH1 0x4 SSTORE DUP4 PUSH1 0x5 SLOAD AND OR PUSH1 0x5 SSTORE AND SWAP1 PUSH1 0x6 SLOAD AND OR PUSH1 0x6 SSTORE CALLVALUE PUSH1 0x2 SSTORE MLOAD PUSH2 0x1A80 SWAP1 DUP2 PUSH3 0x3DE DUP3 CODECOPY PUSH1 0x80 MLOAD DUP2 DUP2 DUP2 PUSH2 0x723 ADD MSTORE DUP2 DUP2 PUSH2 0x7A5 ADD MSTORE DUP2 DUP2 PUSH2 0x968 ADD MSTORE DUP2 DUP2 PUSH2 0xCBC ADD MSTORE PUSH2 0xDD4 ADD MSTORE PUSH1 0xA0 MLOAD DUP2 DUP2 DUP2 PUSH2 0x161 ADD MSTORE DUP2 DUP2 PUSH2 0x2F8 ADD MSTORE DUP2 DUP2 PUSH2 0x545 ADD MSTORE DUP2 DUP2 PUSH2 0x802 ADD MSTORE PUSH2 0x148A ADD MSTORE PUSH1 0xC0 MLOAD DUP2 DUP2 DUP2 PUSH2 0xAC4 ADD MSTORE DUP2 DUP2 PUSH2 0x1104 ADD MSTORE DUP2 DUP2 PUSH2 0x1931 ADD MSTORE PUSH2 0x19C7 ADD MSTORE PUSH1 0xE0 MLOAD DUP2 DUP2 DUP2 PUSH2 0xC43 ADD MSTORE DUP2 DUP2 PUSH2 0x10D1 ADD MSTORE DUP2 DUP2 PUSH2 0x1966 ADD MSTORE PUSH2 0x19F8 ADD MSTORE RETURN JUMPDEST DUP10 DUP10 AND PUSH3 0xF1 JUMPI PUSH1 0x64 SWAP1 DUP13 MLOAD SWAP1 PUSH3 0x461BCD PUSH1 0xE5 SHL DUP3 MSTORE PUSH1 0x4 DUP3 ADD MSTORE PUSH1 0x15 PUSH1 0x24 DUP3 ADD MSTORE PUSH32 0x6C7020726563697069656E742072657175697265640000000000000000000000 PUSH1 0x44 DUP3 ADD MSTORE REVERT JUMPDEST DUP12 MLOAD PUSH3 0x461BCD PUSH1 0xE5 SHL DUP2 MSTORE PUSH1 0x4 DUP2 ADD DUP10 SWAP1 MSTORE PUSH1 0xF PUSH1 0x24 DUP3 ADD MSTORE PUSH15 0x1D185C99D95D081C995C5D5A5C9959 PUSH1 0x8A SHL PUSH1 0x44 DUP3 ADD MSTORE PUSH1 0x64 SWAP1 REVERT JUMPDEST DUP12 MLOAD PUSH3 0x461BCD PUSH1 0xE5 SHL DUP2 MSTORE PUSH1 0x4 DUP2 ADD DUP10 SWAP1 MSTORE PUSH1 0x16 PUSH1 0x24 DUP3 ADD MSTORE PUSH32 0x7669727475616C20746F6B656E20726571756972656400000000000000000000 PUSH1 0x44 DUP3 ADD MSTORE PUSH1 0x64 SWAP1 REVERT JUMPDEST DUP12 MLOAD PUSH3 0x461BCD PUSH1 0xE5 SHL DUP2 MSTORE PUSH1 0x4 DUP2 ADD DUP10 SWAP1 MSTORE PUSH1 0x14 PUSH1 0x24 DUP3 ADD MSTORE PUSH32 0x7669727475616C20657468207265717569726564000000000000000000000000 PUSH1 0x44 DUP3 ADD MSTORE PUSH1 0x64 SWAP1 REVERT JUMPDEST DUP12 MLOAD PUSH3 0x461BCD PUSH1 0xE5 SHL DUP2 MSTORE PUSH1 0x4 DUP2 ADD DUP10 SWAP1 MSTORE PUSH1 0xC PUSH1 0x24 DUP3 ADD MSTORE PUSH12 0xCCCACA40E8DEDE40D0D2CED PUSH1 0xA3 SHL PUSH1 0x44 DUP3 ADD MSTORE PUSH1 0x64 SWAP1 REVERT JUMPDEST DUP12 MLOAD PUSH3 0x461BCD PUSH1 0xE5 SHL DUP2 MSTORE PUSH1 0x4 DUP2 ADD DUP10 SWAP1 MSTORE PUSH1 0x16 PUSH1 0x24 DUP3 ADD MSTORE PUSH32 0x66656520726563697069656E7420726571756972656400000000000000000000 PUSH1 0x44 DUP3 ADD MSTORE PUSH1 0x64 SWAP1 REVERT JUMPDEST DUP12 MLOAD PUSH3 0x461BCD PUSH1 0xE5 SHL DUP2 MSTORE PUSH1 0x4 DUP2 ADD DUP10 SWAP1 MSTORE PUSH1 0x10 PUSH1 0x24 DUP3 ADD MSTORE PUSH16 0x199858DD1BDC9E481C995C5D5A5C9959 PUSH1 0x82 SHL PUSH1 0x44 DUP3 ADD MSTORE PUSH1 0x64 SWAP1 REVERT JUMPDEST DUP12 MLOAD PUSH3 0x461BCD PUSH1 0xE5 SHL DUP2 MSTORE PUSH1 0x4 DUP2 ADD DUP10 SWAP1 MSTORE PUSH1 0xE PUSH1 0x24 DUP3 ADD MSTORE PUSH14 0x1D1BDAD95B881C995C5D5A5C9959 PUSH1 0x92 SHL PUSH1 0x44 DUP3 ADD MSTORE PUSH1 0x64 SWAP1 REVERT JUMPDEST PUSH1 0x0 DUP1 REVERT JUMPDEST PUSH4 0x4E487B71 PUSH1 0xE0 SHL PUSH1 0x0 MSTORE PUSH1 0x41 PUSH1 0x4 MSTORE PUSH1 0x24 PUSH1 0x0 REVERT JUMPDEST MLOAD SWAP1 PUSH1 0x1 PUSH1 0x1 PUSH1 0xA0 SHL SUB DUP3 AND DUP3 SUB PUSH3 0x3AD JUMPI JUMP INVALID PUSH1 0x80 PUSH1 0x40 DUP2 DUP2 MSTORE PUSH1 0x4 SWAP2 DUP3 CALLDATASIZE LT ISZERO PUSH2 0x16 JUMPI PUSH1 0x0 DUP1 REVERT JUMPDEST PUSH1 0x0 SWAP3 DUP4 CALLDATALOAD PUSH1 0xE0 SHR SWAP2 DUP3 PUSH4 0x758D924 EQ PUSH2 0xF00 JUMPI POP DUP2 PUSH4 0x1AD15BBC EQ PUSH2 0xED7 JUMPI DUP2 PUSH4 0x24A9D853 EQ PUSH2 0xEB8 JUMPI DUP2 PUSH4 0x25217724 EQ PUSH2 0xDBC JUMPI DUP2 PUSH4 0x2760ECA1 EQ PUSH2 0xD9F JUMPI DUP2 PUSH4 0x2A2C6972 EQ PUSH2 0xC8D JUMPI DUP2 PUSH4 0x334041A6 EQ PUSH2 0xC66 JUMPI DUP2 PUSH4 0x343EE3B7 EQ PUSH2 0xC2B JUMPI DUP2 PUSH4 0x398482D8 EQ PUSH2 0xC07 JUMPI DUP2 PUSH4 0x4329742D EQ PUSH2 0xB57 JUMPI DUP2 PUSH4 0x452E68DD EQ PUSH2 0xB2E JUMPI DUP2 PUSH4 0x46904840 EQ PUSH2 0xB06 JUMPI DUP2 PUSH4 0x4BEB394C EQ PUSH2 0xAE7 JUMPI DUP2 PUSH4 0x52B86D2B EQ PUSH2 0xAAC JUMPI DUP2 PUSH4 0x7F544E49 EQ PUSH2 0xA8D JUMPI DUP2 PUSH4 0x8C575AA3 EQ PUSH2 0x92B JUMPI DUP2 PUSH4 0x95564837 EQ PUSH2 0x77D JUMPI DUP2 PUSH4 0xA64190C4 EQ PUSH2 0x752 JUMPI DUP2 PUSH4 0xC45A0155 EQ PUSH2 0x70E JUMPI DUP2 PUSH4 0xCBCB3171 EQ PUSH2 0x6EF JUMPI DUP2 PUSH4 0xD62CCB3F EQ PUSH2 0x6D0 JUMPI DUP2 PUSH4 0xD79875EB EQ PUSH2 0x463 JUMPI DUP2 PUSH4 0xD96A094A EQ PUSH2 0x1FA JUMPI DUP2 PUSH4 0xE1A45218 EQ PUSH2 0x1DD JUMPI DUP2 PUSH4 0xE7C2B772 EQ PUSH2 0x1B6 JUMPI DUP2 PUSH4 0xF95A02D0 EQ PUSH2 0x194 JUMPI POP PUSH4 0xFC0C546A EQ PUSH2 0x14E JUMPI PUSH1 0x0 DUP1 REVERT JUMPDEST CALLVALUE PUSH2 0x190 JUMPI DUP2 PUSH1 0x3 NOT CALLDATASIZE ADD SLT PUSH2 0x190 JUMPI MLOAD PUSH32 0x0 PUSH1 0x1 PUSH1 0x1 PUSH1 0xA0 SHL SUB AND DUP2 MSTORE PUSH1 0x20 SWAP1 RETURN JUMPDEST POP DUP1 REVERT JUMPDEST SWAP1 POP CALLVALUE PUSH2 0x1B2 JUMPI DUP3 PUSH1 0x3 NOT CALLDATASIZE ADD SLT PUSH2 0x1B2 JUMPI PUSH1 0x20 SWAP3 POP SLOAD SWAP1 MLOAD SWAP1 DUP2 MSTORE RETURN JUMPDEST DUP3 DUP1 REVERT JUMPDEST POP POP CALLVALUE PUSH2 0x190 JUMPI DUP2 PUSH1 0x3 NOT CALLDATASIZE ADD SLT PUSH2 0x190 JUMPI PUSH1 0x20 SWAP1 PUSH1 0xFF PUSH1 0x6 SLOAD PUSH1 0xA8 SHR AND SWAP1 MLOAD SWAP1 ISZERO ISZERO DUP2 MSTORE RETURN JUMPDEST POP POP CALLVALUE PUSH2 0x190 JUMPI DUP2 PUSH1 0x3 NOT CALLDATASIZE ADD SLT PUSH2 0x190 JUMPI PUSH1 0x20 SWAP1 MLOAD PUSH2 0x2710 DUP2 MSTORE RETURN JUMPDEST SWAP2 SWAP1 POP PUSH1 0x20 SWAP3 DUP4 PUSH1 0x3 NOT CALLDATASIZE ADD SLT PUSH2 0x460 JUMPI PUSH1 0x6 SLOAD SWAP1 PUSH2 0x21F PUSH1 0xFF DUP4 PUSH1 0xB0 SHR AND ISZERO PUSH2 0xF7B JUMP JUMPDEST PUSH1 0xFF PUSH1 0xB0 SHL NOT SWAP2 DUP3 AND PUSH1 0x1 PUSH1 0xB0 SHL OR PUSH1 0x6 DUP2 SWAP1 SSTORE PUSH2 0x253 SWAP1 PUSH1 0xFF SWAP1 PUSH2 0x249 PUSH1 0xA0 DUP3 SWAP1 SHR DUP4 AND PUSH2 0xFB4 JUMP JUMPDEST PUSH1 0xA8 SHR AND ISZERO PUSH2 0x129A JUMP JUMPDEST CALLVALUE ISZERO PUSH2 0x42E JUMPI PUSH2 0x2710 PUSH2 0x268 PUSH1 0x1 SLOAD CALLVALUE PUSH2 0x1032 JUMP JUMPDEST DIV SWAP1 PUSH2 0x274 DUP3 CALLVALUE PUSH2 0x1150 JUMP JUMPDEST SWAP5 PUSH2 0x27E DUP7 PUSH2 0x1923 JUMP JUMPDEST SWAP6 PUSH2 0x28A DUP8 ISZERO ISZERO PUSH2 0x12D2 JUMP JUMPDEST PUSH2 0x297 DUP3 CALLDATALOAD DUP9 LT ISZERO PUSH2 0x1314 JUMP JUMPDEST PUSH1 0x3 SLOAD SWAP1 DUP2 DUP9 GT PUSH2 0x3F2 JUMPI PUSH2 0x2F3 SWAP3 PUSH2 0x2C1 DUP10 DUP12 SWAP5 PUSH2 0x2B9 DUP3 SWAP6 PUSH1 0x2 SLOAD PUSH2 0x10BC JUMP JUMPDEST PUSH1 0x2 SSTORE PUSH2 0x1150 JUMP JUMPDEST PUSH1 0x3 SSTORE DUP6 PUSH2 0x3CB JUMPI JUMPDEST DUP8 MLOAD PUSH4 0xA9059CBB PUSH1 0xE0 SHL DUP2 MSTORE CALLER SWAP2 DUP2 ADD SWAP2 DUP3 MSTORE PUSH1 0x20 DUP3 ADD SWAP3 SWAP1 SWAP3 MSTORE SWAP1 SWAP3 DUP4 SWAP2 DUP3 SWAP2 PUSH1 0x40 SWAP1 SWAP2 ADD SWAP1 JUMP JUMPDEST SUB DUP2 DUP6 PUSH32 0x0 PUSH1 0x1 PUSH1 0x1 PUSH1 0xA0 SHL SUB AND GAS CALL SWAP2 DUP3 ISZERO PUSH2 0x3C0 JUMPI SWAP1 PUSH2 0x339 SWAP3 PUSH2 0x393 JUMPI JUMPDEST POP PUSH2 0x1363 JUMP JUMPDEST PUSH32 0xBEAE048C6D270D9469F86CF6E8FEDDA3C60AD770F16C24C9FC131C8E9A09101D DUP4 MLOAD DUP1 PUSH2 0x37B DUP8 CALLER SWAP6 CALLVALUE DUP5 PUSH1 0x40 SWAP2 SWAP5 SWAP4 SWAP3 PUSH1 0x60 DUP3 ADD SWAP6 DUP3 MSTORE PUSH1 0x20 DUP3 ADD MSTORE ADD MSTORE JUMP JUMPDEST SUB SWAP1 LOG2 PUSH2 0x386 PUSH2 0x1A28 JUMP JUMPDEST PUSH1 0x6 SLOAD AND PUSH1 0x6 SSTORE MLOAD SWAP1 DUP2 MSTORE RETURN JUMPDEST PUSH2 0x3B3 SWAP2 POP DUP8 RETURNDATASIZE DUP10 GT PUSH2 0x3B9 JUMPI JUMPDEST PUSH2 0x3AB DUP2 DUP4 PUSH2 0x1204 JUMP JUMPDEST DUP2 ADD SWAP1 PUSH2 0x134B JUMP JUMPDEST CODESIZE PUSH2 0x333 JUMP JUMPDEST POP RETURNDATASIZE PUSH2 0x3A1 JUMP JUMPDEST DUP6 MLOAD SWAP1 RETURNDATASIZE SWAP1 DUP3 RETURNDATACOPY RETURNDATASIZE SWAP1 REVERT JUMPDEST PUSH2 0x3ED DUP6 DUP1 DUP1 DUP1 DUP11 PUSH1 0x1 DUP1 PUSH1 0xA0 SHL SUB DUP3 SLOAD AND GAS CALL PUSH2 0x3E7 PUSH2 0x13A7 JUMP JUMPDEST POP PUSH2 0x13E7 JUMP JUMPDEST PUSH2 0x2CA JUMP JUMPDEST DUP7 MLOAD PUSH3 0x461BCD PUSH1 0xE5 SHL DUP2 MSTORE DUP1 DUP5 ADD DUP11 SWAP1 MSTORE PUSH1 0x16 PUSH1 0x24 DUP3 ADD MSTORE PUSH22 0x696E73756666696369656E74206C6971756964697479 PUSH1 0x50 SHL PUSH1 0x44 DUP3 ADD MSTORE PUSH1 0x64 SWAP1 REVERT JUMPDEST DUP3 MLOAD PUSH3 0x461BCD PUSH1 0xE5 SHL DUP2 MSTORE DUP1 DUP6 ADD DUP7 SWAP1 MSTORE PUSH1 0xC PUSH1 0x24 DUP3 ADD MSTORE PUSH12 0x195D1A081C995C5D5A5C9959 PUSH1 0xA2 SHL PUSH1 0x44 DUP3 ADD MSTORE PUSH1 0x64 SWAP1 REVERT JUMPDEST DUP1 REVERT JUMPDEST SWAP2 SWAP1 POP CALLVALUE PUSH2 0x1B2 JUMPI DUP1 PUSH1 0x3 NOT CALLDATASIZE ADD SLT PUSH2 0x1B2 JUMPI DUP2 CALLDATALOAD PUSH1 0x6 SLOAD SWAP1 PUSH2 0x48C PUSH1 0xFF DUP4 PUSH1 0xB0 SHR AND ISZERO PUSH2 0xF7B JUMP JUMPDEST PUSH1 0xFF PUSH1 0xB0 SHL NOT SWAP2 DUP3 AND PUSH1 0x1 PUSH1 0xB0 SHL OR PUSH1 0x6 DUP2 SWAP1 SSTORE PUSH2 0x4B6 SWAP1 PUSH1 0xFF SWAP1 PUSH2 0x249 PUSH1 0xA0 DUP3 SWAP1 SHR DUP4 AND PUSH2 0xFB4 JUMP JUMPDEST PUSH2 0x4C1 DUP2 ISZERO ISZERO PUSH2 0x11C0 JUMP JUMPDEST PUSH2 0x4CA DUP2 PUSH2 0x19BB JUMP JUMPDEST SWAP5 PUSH2 0x4D6 DUP7 ISZERO ISZERO PUSH2 0x12D2 JUMP JUMPDEST PUSH1 0x2 SLOAD DUP7 GT PUSH2 0x68D JUMPI PUSH2 0x2710 PUSH2 0x4EE PUSH1 0x1 SLOAD DUP9 PUSH2 0x1032 JUMP JUMPDEST DIV SWAP6 PUSH2 0x4FA DUP8 DUP3 PUSH2 0x1150 JUMP JUMPDEST SWAP6 PUSH2 0x509 PUSH1 0x24 CALLDATALOAD DUP9 LT ISZERO PUSH2 0x1314 JUMP JUMPDEST DUP6 MLOAD PUSH4 0x23B872DD PUSH1 0xE0 SHL DUP2 MSTORE CALLER DUP3 DUP3 ADD SWAP1 DUP2 MSTORE ADDRESS PUSH1 0x20 DUP3 DUP2 ADD SWAP2 SWAP1 SWAP2 MSTORE PUSH1 0x40 DUP3 ADD DUP8 SWAP1 MSTORE PUSH1 0x1 PUSH1 0x1 PUSH1 0xA0 SHL SUB SWAP5 SWAP3 SWAP2 DUP3 SWAP1 DUP2 SWAP1 PUSH1 0x60 ADD SUB DUP2 DUP9 DUP9 PUSH32 0x0 AND GAS CALL SWAP1 DUP2 ISZERO PUSH2 0x683 JUMPI PUSH2 0x59A SWAP3 SWAP2 PUSH2 0x583 SWAP2 DUP8 SWAP2 PUSH2 0x66A JUMPI POP PUSH2 0x1363 JUMP JUMPDEST PUSH2 0x58F DUP7 PUSH1 0x3 SLOAD PUSH2 0x10BC JUMP JUMPDEST PUSH1 0x3 SSTORE PUSH1 0x2 SLOAD PUSH2 0x1150 JUMP JUMPDEST PUSH1 0x2 SSTORE DUP3 DUP1 DUP1 DUP1 DUP11 CALLER GAS CALL PUSH2 0x5AD PUSH2 0x13A7 JUMP JUMPDEST POP ISZERO PUSH2 0x631 JUMPI POP DUP7 DUP1 PUSH32 0x846C37EEF631E0943682D87352EC117C20008EB7F425C9B85AC011A6D4774CC0 SWAP4 PUSH2 0x604 SWAP4 PUSH1 0x20 SWAP11 PUSH2 0x614 JUMPI JUMPDEST POP POP DUP7 MLOAD SWAP5 DUP6 MSTORE POP PUSH1 0x20 DUP5 ADD DUP8 SWAP1 MSTORE PUSH1 0x40 DUP5 ADD MSTORE CALLER SWAP3 SWAP1 DUP2 SWAP1 PUSH1 0x60 DUP3 ADD SWAP1 JUMP JUMPDEST SUB SWAP1 LOG2 PUSH1 0x6 SLOAD AND PUSH1 0x6 SSTORE MLOAD SWAP1 DUP2 MSTORE RETURN JUMPDEST DUP2 DUP1 PUSH2 0x629 SWAP5 DUP2 SWAP4 DUP3 SLOAD AND GAS CALL PUSH2 0x3E7 PUSH2 0x13A7 JUMP JUMPDEST DUP1 CODESIZE DUP1 PUSH2 0x5E4 JUMP JUMPDEST PUSH1 0x64 SWAP1 PUSH1 0x20 DUP8 MLOAD SWAP2 PUSH3 0x461BCD PUSH1 0xE5 SHL DUP4 MSTORE DUP3 ADD MSTORE PUSH1 0x13 PUSH1 0x24 DUP3 ADD MSTORE PUSH19 0x195D1A081D1C985B9CD9995C8819985A5B1959 PUSH1 0x6A SHL PUSH1 0x44 DUP3 ADD MSTORE REVERT JUMPDEST PUSH2 0x3B3 SWAP2 POP PUSH1 0x20 RETURNDATASIZE PUSH1 0x20 GT PUSH2 0x3B9 JUMPI PUSH2 0x3AB DUP2 DUP4 PUSH2 0x1204 JUMP JUMPDEST DUP9 MLOAD RETURNDATASIZE DUP8 DUP3 RETURNDATACOPY RETURNDATASIZE SWAP1 REVERT JUMPDEST DUP4 MLOAD PUSH3 0x461BCD PUSH1 0xE5 SHL DUP2 MSTORE PUSH1 0x20 DUP2 DUP8 ADD MSTORE PUSH1 0x18 PUSH1 0x24 DUP3 ADD MSTORE PUSH32 0x696E73756666696369656E742065746820726573657276650000000000000000 PUSH1 0x44 DUP3 ADD MSTORE PUSH1 0x64 SWAP1 REVERT JUMPDEST POP POP CALLVALUE PUSH2 0x190 JUMPI DUP2 PUSH1 0x3 NOT CALLDATASIZE ADD SLT PUSH2 0x190 JUMPI PUSH1 0x20 SWAP1 PUSH1 0x2 SLOAD SWAP1 MLOAD SWAP1 DUP2 MSTORE RETURN JUMPDEST POP POP CALLVALUE PUSH2 0x190 JUMPI DUP2 PUSH1 0x3 NOT CALLDATASIZE ADD SLT PUSH2 0x190 JUMPI PUSH1 0x20 SWAP1 PUSH1 0x3 SLOAD SWAP1 MLOAD SWAP1 DUP2 MSTORE RETURN JUMPDEST POP POP CALLVALUE PUSH2 0x190 JUMPI DUP2 PUSH1 0x3 NOT CALLDATASIZE ADD SLT PUSH2 0x190 JUMPI MLOAD PUSH32 0x0 PUSH1 0x1 PUSH1 0x1 PUSH1 0xA0 SHL SUB AND DUP2 MSTORE PUSH1 0x20 SWAP1 RETURN JUMPDEST SWAP1 POP DUP3 CALLVALUE PUSH2 0x460 JUMPI PUSH1 0x20 CALLDATASIZE PUSH1 0x3 NOT ADD SLT PUSH2 0x460 JUMPI POP PUSH2 0x771 SWAP1 CALLDATALOAD PUSH2 0x123C JUMP JUMPDEST DUP3 MLOAD SWAP2 DUP3 MSTORE PUSH1 0x20 DUP3 ADD MSTORE RETURN JUMPDEST DUP4 SWAP2 POP CALLVALUE PUSH2 0x190 JUMPI PUSH1 0x20 SWAP1 DUP2 PUSH1 0x3 NOT CALLDATASIZE ADD SLT PUSH2 0x1B2 JUMPI DUP1 CALLDATALOAD SWAP1 PUSH1 0x1 PUSH1 0x1 PUSH1 0xA0 SHL SUB SWAP1 PUSH2 0x7CC CALLER PUSH32 0x0 DUP5 AND EQ PUSH2 0xF40 JUMP JUMPDEST PUSH1 0x6 SLOAD SWAP2 PUSH1 0xFF DUP4 PUSH1 0xA0 SHR AND PUSH2 0x8F7 JUMPI DUP5 PUSH1 0x24 SWAP2 PUSH2 0x7EA DUP7 ISZERO ISZERO PUSH2 0x11C0 JUMP JUMPDEST DUP9 MLOAD PUSH4 0x70A08231 PUSH1 0xE0 SHL DUP2 MSTORE ADDRESS DUP6 DUP3 ADD MSTORE SWAP3 DUP4 SWAP2 DUP3 SWAP1 PUSH32 0x0 AND GAS STATICCALL SWAP1 DUP2 ISZERO PUSH2 0x8ED JUMPI SWAP1 DUP5 SWAP2 DUP8 SWAP2 PUSH2 0x8B8 JUMPI JUMPDEST POP LT PUSH2 0x87F JUMPI POP PUSH1 0xFF PUSH1 0xA0 SHL NOT AND PUSH1 0x1 PUSH1 0xA0 SHL OR PUSH1 0x6 SSTORE PUSH1 0x3 DUP2 SWAP1 SSTORE SWAP3 MLOAD SWAP3 DUP4 MSTORE SWAP1 SWAP2 PUSH32 0xA71ED34FF06AF8D6865A8F541AAE52D72FA89F0E5EE15F01D48FA6C62C856914 SWAP2 SWAP1 LOG1 DUP1 RETURN JUMPDEST DUP6 MLOAD PUSH3 0x461BCD PUSH1 0xE5 SHL DUP2 MSTORE SWAP1 DUP2 ADD DUP5 SWAP1 MSTORE PUSH1 0x13 PUSH1 0x24 DUP3 ADD MSTORE PUSH19 0x696E73756666696369656E7420746F6B656E73 PUSH1 0x68 SHL PUSH1 0x44 DUP3 ADD MSTORE PUSH1 0x64 SWAP1 REVERT JUMPDEST DUP1 SWAP3 POP DUP7 DUP1 SWAP3 POP RETURNDATASIZE DUP4 GT PUSH2 0x8E6 JUMPI JUMPDEST PUSH2 0x8D1 DUP2 DUP4 PUSH2 0x1204 JUMP JUMPDEST DUP2 ADD SUB SLT PUSH2 0x8E2 JUMPI DUP4 SWAP1 MLOAD DUP9 PUSH2 0x835 JUMP JUMPDEST DUP6 DUP1 REVERT JUMPDEST POP RETURNDATASIZE PUSH2 0x8C7 JUMP JUMPDEST DUP8 MLOAD RETURNDATASIZE DUP9 DUP3 RETURNDATACOPY RETURNDATASIZE SWAP1 REVERT JUMPDEST DUP7 MLOAD PUSH3 0x461BCD PUSH1 0xE5 SHL DUP2 MSTORE DUP1 DUP4 ADD DUP7 SWAP1 MSTORE PUSH1 0xE PUSH1 0x24 DUP3 ADD MSTORE PUSH14 0x185B1C9958591E481CD959591959 PUSH1 0x92 SHL PUSH1 0x44 DUP3 ADD MSTORE PUSH1 0x64 SWAP1 REVERT JUMPDEST DUP4 SWAP2 POP CALLVALUE PUSH2 0x190 JUMPI PUSH1 0x60 CALLDATASIZE PUSH1 0x3 NOT ADD SLT PUSH2 0x190 JUMPI PUSH2 0x947 PUSH2 0xF25 JUMP JUMPDEST PUSH1 0x24 CALLDATALOAD SWAP2 PUSH1 0x1 PUSH1 0x1 PUSH1 0xA0 SHL SUB SWAP1 DUP2 DUP5 AND DUP1 DUP6 SUB PUSH2 0x8E2 JUMPI PUSH1 0x44 CALLDATALOAD SWAP3 PUSH2 0x98F DUP2 PUSH32 0x0 AND CALLER EQ PUSH2 0xF40 JUMP JUMPDEST PUSH1 0x6 SLOAD SWAP1 PUSH2 0x9A3 PUSH1 0xFF DUP4 PUSH1 0xA8 SHR AND ISZERO PUSH2 0xFF2 JUMP JUMPDEST DUP5 ISZERO PUSH2 0xA58 JUMPI DUP6 AND SWAP1 DUP2 PUSH2 0xA18 JUMPI JUMPDEST PUSH1 0x5 DUP1 SLOAD PUSH1 0x1 PUSH1 0x1 PUSH1 0xA0 SHL SUB NOT SWAP1 DUP2 AND SWAP4 SWAP1 SWAP4 OR SWAP1 SSTORE AND OR PUSH1 0x6 SSTORE DUP2 SWAP1 SSTORE SWAP4 MLOAD PUSH1 0x1 PUSH1 0x1 PUSH1 0xA0 SHL SUB SWAP2 DUP3 AND DUP2 MSTORE SWAP2 AND PUSH1 0x20 DUP3 ADD MSTORE PUSH1 0x40 DUP2 ADD SWAP3 SWAP1 SWAP3 MSTORE SWAP1 PUSH32 0xBCDC4BFF84F936019028A7BCBEF6B449550D6334606377B822720E57E94276C4 SWAP1 PUSH1 0x60 SWAP1 LOG1 DUP1 RETURN JUMPDEST DUP3 PUSH2 0x9B2 JUMPI DUP9 MLOAD PUSH3 0x461BCD PUSH1 0xE5 SHL DUP2 MSTORE PUSH1 0x20 DUP2 DUP7 ADD MSTORE PUSH1 0x15 PUSH1 0x24 DUP3 ADD MSTORE PUSH21 0x1B1C081C9958DA5C1A595B9D081C995C5D5A5C9959 PUSH1 0x5A SHL PUSH1 0x44 DUP3 ADD MSTORE PUSH1 0x64 SWAP1 REVERT JUMPDEST DUP9 MLOAD PUSH3 0x461BCD PUSH1 0xE5 SHL DUP2 MSTORE PUSH1 0x20 DUP2 DUP7 ADD MSTORE PUSH1 0xF PUSH1 0x24 DUP3 ADD MSTORE PUSH15 0x1D185C99D95D081C995C5D5A5C9959 PUSH1 0x8A SHL PUSH1 0x44 DUP3 ADD MSTORE PUSH1 0x64 SWAP1 REVERT JUMPDEST POP POP CALLVALUE PUSH2 0x190 JUMPI DUP2 PUSH1 0x3 NOT CALLDATASIZE ADD SLT PUSH2 0x190 JUMPI PUSH1 0x20 SWAP1 PUSH1 0x8 SLOAD SWAP1 MLOAD SWAP1 DUP2 MSTORE RETURN JUMPDEST POP POP CALLVALUE PUSH2 0x190 JUMPI DUP2 PUSH1 0x3 NOT CALLDATASIZE ADD SLT PUSH2 0x190 JUMPI PUSH1 0x20 SWAP1 MLOAD PUSH32 0x0 DUP2 MSTORE RETURN JUMPDEST SWAP1 POP DUP3 CALLVALUE PUSH2 0x460 JUMPI PUSH1 0x20 CALLDATASIZE PUSH1 0x3 NOT ADD SLT PUSH2 0x460 JUMPI POP PUSH2 0x771 SWAP1 CALLDATALOAD PUSH2 0x115D JUMP JUMPDEST POP POP CALLVALUE PUSH2 0x190 JUMPI DUP2 PUSH1 0x3 NOT CALLDATASIZE ADD SLT PUSH2 0x190 JUMPI SWAP1 SLOAD SWAP1 MLOAD PUSH1 0x1 PUSH1 0x1 PUSH1 0xA0 SHL SUB SWAP1 SWAP2 AND DUP2 MSTORE PUSH1 0x20 SWAP1 RETURN JUMPDEST POP POP CALLVALUE PUSH2 0x190 JUMPI DUP2 PUSH1 0x3 NOT CALLDATASIZE ADD SLT PUSH2 0x190 JUMPI PUSH1 0x6 SLOAD SWAP1 MLOAD PUSH1 0x1 PUSH1 0x1 PUSH1 0xA0 SHL SUB SWAP1 SWAP2 AND DUP2 MSTORE PUSH1 0x20 SWAP1 RETURN JUMPDEST SWAP1 POP CALLVALUE PUSH2 0x1B2 JUMPI DUP3 PUSH1 0x3 NOT CALLDATASIZE ADD SLT PUSH2 0x1B2 JUMPI PUSH1 0x6 SLOAD SWAP2 PUSH2 0xB7D PUSH1 0xFF DUP5 PUSH1 0xB0 SHR AND ISZERO PUSH2 0xF7B JUMP JUMPDEST PUSH1 0xFF PUSH1 0xB0 SHL NOT SWAP3 DUP4 AND PUSH1 0x1 PUSH1 0xB0 SHL OR PUSH1 0x6 DUP2 SWAP1 SSTORE PUSH2 0xBB1 SWAP1 PUSH1 0xFF SWAP1 PUSH2 0xBA7 PUSH1 0xA0 DUP3 SWAP1 SHR DUP4 AND PUSH2 0xFB4 JUMP JUMPDEST PUSH1 0xA8 SHR AND ISZERO PUSH2 0xFF2 JUMP JUMPDEST PUSH1 0x2 SLOAD DUP3 SLOAD GT PUSH2 0xBCF JUMPI POP POP PUSH2 0xBC5 PUSH2 0x1448 JUMP JUMPDEST PUSH1 0x6 SLOAD AND PUSH1 0x6 SSTORE DUP1 RETURN JUMPDEST SWAP1 PUSH1 0x20 PUSH1 0x64 SWAP3 MLOAD SWAP2 PUSH3 0x461BCD PUSH1 0xE5 SHL DUP4 MSTORE DUP3 ADD MSTORE PUSH1 0x12 PUSH1 0x24 DUP3 ADD MSTORE PUSH18 0x1D185C99D95D081B9BDD081C995858DA1959 PUSH1 0x72 SHL PUSH1 0x44 DUP3 ADD MSTORE REVERT JUMPDEST POP POP CALLVALUE PUSH2 0x190 JUMPI DUP2 PUSH1 0x3 NOT CALLDATASIZE ADD SLT PUSH2 0x190 JUMPI PUSH1 0x20 SWAP1 PUSH2 0xC24 PUSH2 0x10C9 JUMP JUMPDEST SWAP1 MLOAD SWAP1 DUP2 MSTORE RETURN JUMPDEST POP POP CALLVALUE PUSH2 0x190 JUMPI DUP2 PUSH1 0x3 NOT CALLDATASIZE ADD SLT PUSH2 0x190 JUMPI PUSH1 0x20 SWAP1 MLOAD PUSH32 0x0 DUP2 MSTORE RETURN JUMPDEST POP POP CALLVALUE PUSH2 0x190 JUMPI DUP2 PUSH1 0x3 NOT CALLDATASIZE ADD SLT PUSH2 0x190 JUMPI PUSH1 0x20 SWAP1 PUSH1 0xFF PUSH1 0x6 SLOAD PUSH1 0xA0 SHR AND SWAP1 MLOAD SWAP1 ISZERO ISZERO DUP2 MSTORE RETURN JUMPDEST SWAP2 SWAP1 POP CALLVALUE PUSH2 0x1B2 JUMPI DUP1 PUSH1 0x3 NOT CALLDATASIZE ADD SLT PUSH2 0x1B2 JUMPI PUSH2 0xCA8 PUSH2 0xF25 JUMP JUMPDEST PUSH1 0x24 CALLDATALOAD SWAP2 SWAP1 PUSH1 0x1 PUSH1 0x1 PUSH1 0xA0 SHL SUB SWAP1 PUSH2 0xCE3 CALLER PUSH32 0x0 DUP5 AND EQ PUSH2 0xF40 JUMP JUMPDEST AND SWAP3 DUP4 ISZERO PUSH2 0xD68 JUMPI PUSH2 0x12C DUP4 GT PUSH2 0xD37 JUMPI POP DUP4 SLOAD PUSH1 0x1 PUSH1 0x1 PUSH1 0xA0 SHL SUB NOT AND DUP4 OR DUP5 SSTORE PUSH1 0x1 DUP3 SWAP1 SSTORE MLOAD SWAP1 DUP2 MSTORE PUSH32 0xE42708D93B95810922305119A3271CA42233DA9EBE1E1E503F0E887817A32C7A SWAP1 PUSH1 0x20 SWAP1 LOG2 DUP1 RETURN JUMPDEST PUSH1 0x20 PUSH1 0x64 SWAP3 MLOAD SWAP2 PUSH3 0x461BCD PUSH1 0xE5 SHL DUP4 MSTORE DUP3 ADD MSTORE PUSH1 0xC PUSH1 0x24 DUP3 ADD MSTORE PUSH12 0xCCCACA40E8DEDE40D0D2CED PUSH1 0xA3 SHL PUSH1 0x44 DUP3 ADD MSTORE REVERT JUMPDEST PUSH1 0x20 PUSH1 0x64 SWAP3 MLOAD SWAP2 PUSH3 0x461BCD PUSH1 0xE5 SHL DUP4 MSTORE DUP3 ADD MSTORE PUSH1 0x12 PUSH1 0x24 DUP3 ADD MSTORE PUSH18 0x1C9958DA5C1A595B9D081C995C5D5A5C9959 PUSH1 0x72 SHL PUSH1 0x44 DUP3 ADD MSTORE REVERT JUMPDEST POP POP CALLVALUE PUSH2 0x190 JUMPI DUP2 PUSH1 0x3 NOT CALLDATASIZE ADD SLT PUSH2 0x190 JUMPI PUSH1 0x20 SWAP1 PUSH2 0xC24 PUSH2 0x107B JUMP JUMPDEST SWAP1 POP CALLVALUE PUSH2 0x1B2 JUMPI DUP3 PUSH1 0x3 NOT CALLDATASIZE ADD SLT PUSH2 0x1B2 JUMPI PUSH2 0xE02 CALLER PUSH32 0x0 PUSH1 0x1 PUSH1 0x1 PUSH1 0xA0 SHL SUB AND EQ PUSH2 0xF40 JUMP JUMPDEST PUSH1 0x6 SLOAD SWAP2 PUSH2 0xE16 PUSH1 0xFF DUP5 PUSH1 0xB0 SHR AND ISZERO PUSH2 0xF7B JUMP JUMPDEST PUSH1 0xFF PUSH1 0xB0 SHL NOT SWAP3 DUP4 AND PUSH1 0x1 PUSH1 0xB0 SHL OR PUSH1 0x6 DUP2 SWAP1 SSTORE PUSH2 0xE40 SWAP1 PUSH1 0xFF SWAP1 PUSH2 0xBA7 PUSH1 0xA0 DUP3 SWAP1 SHR DUP4 AND PUSH2 0xFB4 JUMP JUMPDEST PUSH1 0x2 SLOAD SWAP2 DUP3 ISZERO PUSH2 0xE85 JUMPI POP PUSH32 0x5D6DC6B9835F5448AE2351719684F59735B30DFA8E62677CC6F9E98BD4C08F7F SWAP1 PUSH1 0x3 SLOAD DUP2 MLOAD SWAP4 DUP5 MSTORE PUSH1 0x20 DUP5 ADD MSTORE CALLER SWAP3 LOG2 PUSH2 0xBC5 PUSH2 0x1448 JUMP JUMPDEST PUSH1 0x20 PUSH1 0x64 SWAP3 MLOAD SWAP2 PUSH3 0x461BCD PUSH1 0xE5 SHL DUP4 MSTORE DUP3 ADD MSTORE PUSH1 0xE PUSH1 0x24 DUP3 ADD MSTORE PUSH14 0x6E6F206574682072657365727665 PUSH1 0x90 SHL PUSH1 0x44 DUP3 ADD MSTORE REVERT JUMPDEST POP POP CALLVALUE PUSH2 0x190 JUMPI DUP2 PUSH1 0x3 NOT CALLDATASIZE ADD SLT PUSH2 0x190 JUMPI PUSH1 0x20 SWAP1 PUSH1 0x1 SLOAD SWAP1 MLOAD SWAP1 DUP2 MSTORE RETURN JUMPDEST POP POP CALLVALUE PUSH2 0x190 JUMPI DUP2 PUSH1 0x3 NOT CALLDATASIZE ADD SLT PUSH2 0x190 JUMPI PUSH1 0x7 SLOAD SWAP1 MLOAD PUSH1 0x1 PUSH1 0x1 PUSH1 0xA0 SHL SUB SWAP1 SWAP2 AND DUP2 MSTORE PUSH1 0x20 SWAP1 RETURN JUMPDEST DUP5 SWAP1 CALLVALUE PUSH2 0x190 JUMPI DUP2 PUSH1 0x3 NOT CALLDATASIZE ADD SLT PUSH2 0x190 JUMPI PUSH1 0x5 SLOAD PUSH1 0x1 PUSH1 0x1 PUSH1 0xA0 SHL SUB AND DUP2 MSTORE PUSH1 0x20 SWAP1 RETURN JUMPDEST PUSH1 0x4 CALLDATALOAD SWAP1 PUSH1 0x1 PUSH1 0x1 PUSH1 0xA0 SHL SUB DUP3 AND DUP3 SUB PUSH2 0xF3B JUMPI JUMP JUMPDEST PUSH1 0x0 DUP1 REVERT JUMPDEST ISZERO PUSH2 0xF47 JUMPI JUMP JUMPDEST PUSH1 0x40 MLOAD PUSH3 0x461BCD PUSH1 0xE5 SHL DUP2 MSTORE PUSH1 0x20 PUSH1 0x4 DUP3 ADD MSTORE PUSH1 0xC PUSH1 0x24 DUP3 ADD MSTORE PUSH12 0x6F6E6C7920666163746F7279 PUSH1 0xA0 SHL PUSH1 0x44 DUP3 ADD MSTORE PUSH1 0x64 SWAP1 REVERT JUMPDEST ISZERO PUSH2 0xF82 JUMPI JUMP JUMPDEST PUSH1 0x40 MLOAD PUSH3 0x461BCD PUSH1 0xE5 SHL DUP2 MSTORE PUSH1 0x20 PUSH1 0x4 DUP3 ADD MSTORE PUSH1 0xA PUSH1 0x24 DUP3 ADD MSTORE PUSH10 0x7265656E7472616E6379 PUSH1 0xB0 SHL PUSH1 0x44 DUP3 ADD MSTORE PUSH1 0x64 SWAP1 REVERT JUMPDEST ISZERO PUSH2 0xFBB JUMPI JUMP JUMPDEST PUSH1 0x40 MLOAD PUSH3 0x461BCD PUSH1 0xE5 SHL DUP2 MSTORE PUSH1 0x20 PUSH1 0x4 DUP3 ADD MSTORE PUSH1 0xF PUSH1 0x24 DUP3 ADD MSTORE PUSH15 0x1C1BDBDB081B9BDD081CD959591959 PUSH1 0x8A SHL PUSH1 0x44 DUP3 ADD MSTORE PUSH1 0x64 SWAP1 REVERT JUMPDEST ISZERO PUSH2 0xFF9 JUMPI JUMP JUMPDEST PUSH1 0x40 MLOAD PUSH3 0x461BCD PUSH1 0xE5 SHL DUP2 MSTORE PUSH1 0x20 PUSH1 0x4 DUP3 ADD MSTORE PUSH1 0x11 PUSH1 0x24 DUP3 ADD MSTORE PUSH17 0x185B1C9958591E4819DC98591D585D1959 PUSH1 0x7A SHL PUSH1 0x44 DUP3 ADD MSTORE PUSH1 0x64 SWAP1 REVERT JUMPDEST DUP2 DUP2 MUL SWAP3 SWAP2 DUP2 ISZERO SWAP2 DUP5 DIV EQ OR ISZERO PUSH2 0x1045 JUMPI JUMP JUMPDEST PUSH4 0x4E487B71 PUSH1 0xE0 SHL PUSH1 0x0 MSTORE PUSH1 0x11 PUSH1 0x4 MSTORE PUSH1 0x24 PUSH1 0x0 REVERT JUMPDEST DUP2 ISZERO PUSH2 0x1065 JUMPI DIV SWAP1 JUMP JUMPDEST PUSH4 0x4E487B71 PUSH1 0xE0 SHL PUSH1 0x0 MSTORE PUSH1 0x12 PUSH1 0x4 MSTORE PUSH1 0x24 PUSH1 0x0 REVERT JUMPDEST PUSH1 0x4 SLOAD DUP1 ISZERO PUSH2 0x10B6 JUMPI PUSH1 0x2 SLOAD PUSH2 0x2710 SWAP2 DUP3 DUP3 MUL SWAP2 DUP1 DUP4 DIV DUP5 EQ SWAP1 ISZERO OR ISZERO PUSH2 0x1045 JUMPI PUSH2 0x10A5 SWAP2 PUSH2 0x105B JUMP JUMPDEST SWAP1 DUP1 DUP3 GT PUSH2 0x10B1 JUMPI POP SWAP1 JUMP JUMPDEST SWAP1 POP SWAP1 JUMP JUMPDEST POP PUSH1 0x0 SWAP1 JUMP JUMPDEST SWAP2 SWAP1 DUP3 ADD DUP1 SWAP3 GT PUSH2 0x1045 JUMPI JUMP JUMPDEST PUSH2 0x10F6 PUSH1 0x3 SLOAD PUSH32 0x0 SWAP1 PUSH2 0x10BC JUMP JUMPDEST DUP1 ISZERO PUSH2 0x10B6 JUMPI PUSH2 0x1129 PUSH1 0x2 SLOAD PUSH32 0x0 SWAP1 PUSH2 0x10BC JUMP JUMPDEST SWAP1 PUSH8 0xDE0B6B3A7640000 SWAP2 DUP3 DUP2 MUL SWAP3 DUP2 DUP5 DIV EQ SWAP1 ISZERO OR ISZERO PUSH2 0x1045 JUMPI PUSH2 0x114D SWAP2 PUSH2 0x105B JUMP JUMPDEST SWAP1 JUMP JUMPDEST SWAP2 SWAP1 DUP3 SUB SWAP2 DUP3 GT PUSH2 0x1045 JUMPI JUMP JUMPDEST PUSH1 0x6 SLOAD PUSH1 0xFF DUP2 PUSH1 0xA0 SHR AND ISZERO SWAP1 DUP2 ISZERO PUSH2 0x11B2 JUMPI JUMPDEST POP DUP1 ISZERO PUSH2 0x11AA JUMPI JUMPDEST PUSH2 0x11A1 JUMPI PUSH2 0x119E PUSH2 0x1199 PUSH2 0x2710 PUSH2 0x1191 PUSH1 0x1 SLOAD DUP6 PUSH2 0x1032 JUMP JUMPDEST DIV DUP1 SWAP4 PUSH2 0x1150 JUMP JUMPDEST PUSH2 0x1923 JUMP JUMPDEST SWAP2 JUMP JUMPDEST POP PUSH1 0x0 SWAP1 PUSH1 0x0 SWAP1 JUMP JUMPDEST POP DUP1 ISZERO PUSH2 0x1178 JUMP JUMPDEST PUSH1 0xFF SWAP2 POP PUSH1 0xA8 SHR AND CODESIZE PUSH2 0x1170 JUMP JUMPDEST ISZERO PUSH2 0x11C7 JUMPI JUMP JUMPDEST PUSH1 0x40 MLOAD PUSH3 0x461BCD PUSH1 0xE5 SHL DUP2 MSTORE PUSH1 0x20 PUSH1 0x4 DUP3 ADD MSTORE PUSH1 0x15 PUSH1 0x24 DUP3 ADD MSTORE PUSH21 0x1D1BDAD95B88185B5BDD5B9D081C995C5D5A5C9959 PUSH1 0x5A SHL PUSH1 0x44 DUP3 ADD MSTORE PUSH1 0x64 SWAP1 REVERT JUMPDEST SWAP1 PUSH1 0x1F DUP1 NOT SWAP2 ADD AND DUP2 ADD SWAP1 DUP2 LT PUSH8 0xFFFFFFFFFFFFFFFF DUP3 GT OR PUSH2 0x1226 JUMPI PUSH1 0x40 MSTORE JUMP JUMPDEST PUSH4 0x4E487B71 PUSH1 0xE0 SHL PUSH1 0x0 MSTORE PUSH1 0x41 PUSH1 0x4 MSTORE PUSH1 0x24 PUSH1 0x0 REVERT JUMPDEST PUSH1 0x6 SLOAD PUSH1 0xFF DUP2 PUSH1 0xA0 SHR AND ISZERO SWAP1 DUP2 ISZERO PUSH2 0x128C JUMPI JUMPDEST POP DUP1 ISZERO PUSH2 0x1284 JUMPI JUMPDEST PUSH2 0x11A1 JUMPI PUSH2 0x1264 SWAP1 PUSH2 0x19BB JUMP JUMPDEST DUP1 ISZERO PUSH2 0x11A1 JUMPI PUSH2 0x119E PUSH2 0x2710 PUSH2 0x127C PUSH1 0x1 SLOAD DUP5 PUSH2 0x1032 JUMP JUMPDEST DIV DUP1 SWAP3 PUSH2 0x1150 JUMP JUMPDEST POP DUP1 ISZERO PUSH2 0x1257 JUMP JUMPDEST PUSH1 0xFF SWAP2 POP PUSH1 0xA8 SHR AND CODESIZE PUSH2 0x124F JUMP JUMPDEST ISZERO PUSH2 0x12A1 JUMPI JUMP JUMPDEST PUSH1 0x40 MLOAD PUSH3 0x461BCD PUSH1 0xE5 SHL DUP2 MSTORE PUSH1 0x20 PUSH1 0x4 DUP3 ADD MSTORE PUSH1 0x9 PUSH1 0x24 DUP3 ADD MSTORE PUSH9 0x19DC98591D585D1959 PUSH1 0xBA SHL PUSH1 0x44 DUP3 ADD MSTORE PUSH1 0x64 SWAP1 REVERT JUMPDEST ISZERO PUSH2 0x12D9 JUMPI JUMP JUMPDEST PUSH1 0x40 MLOAD PUSH3 0x461BCD PUSH1 0xE5 SHL DUP2 MSTORE PUSH1 0x20 PUSH1 0x4 DUP3 ADD MSTORE PUSH1 0x13 PUSH1 0x24 DUP3 ADD MSTORE PUSH19 0x1A5B9CDD59999A58DA595B9D081BDD5D1C1D5D PUSH1 0x6A SHL PUSH1 0x44 DUP3 ADD MSTORE PUSH1 0x64 SWAP1 REVERT JUMPDEST ISZERO PUSH2 0x131B JUMPI JUMP JUMPDEST PUSH1 0x40 MLOAD PUSH3 0x461BCD PUSH1 0xE5 SHL DUP2 MSTORE PUSH1 0x20 PUSH1 0x4 DUP3 ADD MSTORE PUSH1 0x8 PUSH1 0x24 DUP3 ADD MSTORE PUSH8 0x736C697070616765 PUSH1 0xC0 SHL PUSH1 0x44 DUP3 ADD MSTORE PUSH1 0x64 SWAP1 REVERT JUMPDEST SWAP1 DUP2 PUSH1 0x20 SWAP2 SUB SLT PUSH2 0xF3B JUMPI MLOAD DUP1 ISZERO ISZERO DUP2 SUB PUSH2 0xF3B JUMPI SWAP1 JUMP JUMPDEST ISZERO PUSH2 0x136A JUMPI JUMP JUMPDEST PUSH1 0x40 MLOAD PUSH3 0x461BCD PUSH1 0xE5 SHL DUP2 MSTORE PUSH1 0x20 PUSH1 0x4 DUP3 ADD MSTORE PUSH1 0x15 PUSH1 0x24 DUP3 ADD MSTORE PUSH21 0x1D1BDAD95B881D1C985B9CD9995C8819985A5B1959 PUSH1 0x5A SHL PUSH1 0x44 DUP3 ADD MSTORE PUSH1 0x64 SWAP1 REVERT JUMPDEST RETURNDATASIZE ISZERO PUSH2 0x13E2 JUMPI RETURNDATASIZE SWAP1 PUSH8 0xFFFFFFFFFFFFFFFF DUP3 GT PUSH2 0x1226 JUMPI PUSH1 0x40 MLOAD SWAP2 PUSH2 0x13D6 PUSH1 0x1F DUP3 ADD PUSH1 0x1F NOT AND PUSH1 0x20 ADD DUP5 PUSH2 0x1204 JUMP JUMPDEST DUP3 MSTORE RETURNDATASIZE PUSH1 0x0 PUSH1 0x20 DUP5 ADD RETURNDATACOPY JUMP JUMPDEST PUSH1 0x60 SWAP1 JUMP JUMPDEST ISZERO PUSH2 0x13EE JUMPI JUMP JUMPDEST PUSH1 0x40 MLOAD PUSH3 0x461BCD PUSH1 0xE5 SHL DUP2 MSTORE PUSH1 0x20 PUSH1 0x4 DUP3 ADD MSTORE PUSH1 0x13 PUSH1 0x24 DUP3 ADD MSTORE PUSH19 0x199959481D1C985B9CD9995C8819985A5B1959 PUSH1 0x6A SHL PUSH1 0x44 DUP3 ADD MSTORE PUSH1 0x64 SWAP1 REVERT JUMPDEST SWAP1 DUP2 PUSH1 0x20 SWAP2 SUB SLT PUSH2 0xF3B JUMPI MLOAD PUSH1 0x1 PUSH1 0x1 PUSH1 0xA0 SHL SUB DUP2 AND DUP2 SUB PUSH2 0xF3B JUMPI SWAP1 JUMP JUMPDEST PUSH1 0x5 SLOAD PUSH1 0x1 PUSH1 0x1 PUSH1 0xA0 SHL SUB SWAP1 DUP2 AND SWAP1 DUP2 ISZERO PUSH2 0x18E9 JUMPI PUSH1 0x1 PUSH1 0xA8 SHL PUSH1 0xFF PUSH1 0xA8 SHL NOT PUSH1 0x6 SLOAD AND OR PUSH1 0x6 SSTORE TIMESTAMP PUSH1 0x8 SSTORE PUSH1 0x3 SLOAD SWAP2 PUSH1 0x2 SLOAD SWAP1 PUSH1 0x0 SWAP3 DUP4 PUSH1 0x3 SSTORE DUP4 PUSH1 0x2 SSTORE DUP1 PUSH32 0x0 AND SWAP4 PUSH1 0x40 SWAP3 DUP4 MLOAD DUP3 PUSH4 0x95EA7B3 PUSH1 0xE0 SHL DUP1 DUP4 MSTORE PUSH1 0x4 SWAP4 DUP5 DUP5 ADD MSTORE PUSH1 0x24 SWAP3 DUP3 DUP5 DUP3 ADD MSTORE DUP10 DUP2 PUSH1 0x44 DUP2 PUSH1 0x20 SWAP10 DUP11 SWAP5 GAS CALL DUP1 ISZERO PUSH2 0x18DF JUMPI SWAP2 DUP7 SWAP2 DUP13 SWAP4 PUSH2 0x18C2 JUMPI JUMPDEST POP PUSH1 0x5 SLOAD DUP10 MLOAD SWAP2 DUP3 MSTORE DUP9 AND PUSH1 0x1 PUSH1 0x1 PUSH1 0xA0 SHL SUB AND DUP7 DUP3 ADD SWAP1 DUP2 MSTORE PUSH1 0x20 DUP2 ADD SWAP4 SWAP1 SWAP4 MSTORE SWAP2 DUP3 SWAP1 DUP2 SWAP1 PUSH1 0x40 ADD SUB DUP2 DUP6 DUP14 GAS CALL DUP1 ISZERO PUSH2 0x1888 JUMPI PUSH2 0x18A5 JUMPI JUMPDEST POP DUP5 PUSH1 0x5 SLOAD AND SWAP5 DUP1 PUSH1 0x6 SLOAD AND SWAP6 PUSH2 0xE10 TIMESTAMP ADD DUP1 TIMESTAMP GT PUSH2 0x1892 JUMPI PUSH1 0xC4 DUP12 DUP12 PUSH1 0x60 SWAP5 DUP16 SWAP5 DUP14 MLOAD SWAP13 DUP14 SWAP7 DUP8 SWAP6 PUSH4 0xF305D719 PUSH1 0xE0 SHL DUP8 MSTORE DUP14 DUP8 ADD MSTORE DUP12 DUP7 ADD MSTORE DUP10 PUSH1 0x44 DUP7 ADD MSTORE DUP10 PUSH1 0x64 DUP7 ADD MSTORE PUSH1 0x84 DUP6 ADD MSTORE PUSH1 0xA4 DUP5 ADD MSTORE GAS CALL SWAP8 DUP9 ISZERO PUSH2 0x1888 JUMPI DUP3 SWAP10 DUP4 SWAP8 DUP5 SWAP11 PUSH2 0x1844 JUMPI JUMPDEST POP PUSH1 0x5 SLOAD DUP10 MLOAD PUSH4 0xC45A0155 PUSH1 0xE0 SHL DUP2 MSTORE SWAP1 DUP5 AND DUP9 DUP3 DUP10 DUP2 DUP5 GAS STATICCALL SWAP2 DUP3 ISZERO PUSH2 0x181B JUMPI DUP9 SWAP3 SWAP2 DUP11 SWAP2 DUP9 SWAP4 PUSH2 0x1825 JUMPI JUMPDEST POP DUP13 MLOAD PUSH4 0x15AB88C9 PUSH1 0xE3 SHL DUP2 MSTORE SWAP4 DUP5 SWAP2 DUP3 SWAP1 GAS STATICCALL SWAP2 DUP3 ISZERO PUSH2 0x181B JUMPI DUP4 DUP10 DUP8 DUP15 SWAP6 SWAP5 DUP14 SWAP5 DUP12 SWAP7 PUSH2 0x17F5 JUMPI JUMPDEST POP DUP2 PUSH1 0x44 SWAP5 SWAP6 SWAP7 SWAP8 MLOAD SWAP8 DUP9 SWAP7 DUP8 SWAP6 PUSH4 0xE6A43905 PUSH1 0xE0 SHL DUP8 MSTORE DUP7 ADD MSTORE AND DUP13 DUP5 ADD MSTORE AND GAS STATICCALL SWAP1 DUP2 ISZERO PUSH2 0x17EB JUMPI SWAP2 DUP5 DUP10 SWAP3 DUP15 SWAP5 DUP9 SWAP2 PUSH2 0x17BE JUMPI JUMPDEST POP AND SWAP14 DUP15 PUSH12 0xFFFFFFFFFFFFFFFFFFFFFFFF PUSH1 0xA0 SHL PUSH1 0x7 SLOAD AND OR PUSH1 0x7 SSTORE DUP4 DUP2 GT PUSH2 0x16ED JUMPI JUMPDEST POP POP POP POP DUP7 DUP2 GT PUSH2 0x1683 JUMPI JUMPDEST POP POP DUP6 MLOAD SWAP8 DUP9 MSTORE POP POP POP DUP5 ADD MSTORE DUP3 ADD MSTORE TIMESTAMP PUSH1 0x60 DUP3 ADD MSTORE PUSH32 0x71AA8C3702DBBC54247A4E6446450E64A46250DD72707A247DDB01D72EAEF445 SWAP1 PUSH1 0x80 SWAP1 LOG2 JUMP JUMPDEST DUP3 DUP1 SWAP3 PUSH2 0x1691 DUP10 DUP4 SWAP5 PUSH2 0x1150 JUMP JUMPDEST SWAP1 DUP3 SLOAD AND GAS CALL PUSH2 0x169F PUSH2 0x13A7 JUMP JUMPDEST POP ISZERO PUSH2 0x16AD JUMPI DUP1 DUP1 DUP1 PUSH2 0x1645 JUMP JUMPDEST PUSH1 0x18 SWAP1 PUSH1 0x64 SWAP4 DUP7 MLOAD SWAP4 PUSH3 0x461BCD PUSH1 0xE5 SHL DUP6 MSTORE DUP5 ADD MSTORE DUP3 ADD MSTORE PUSH32 0x6574682064757374207472616E73666572206661696C65640000000000000000 PUSH1 0x44 DUP3 ADD MSTORE REVERT JUMPDEST PUSH2 0x1734 SWAP4 PUSH2 0x16FA SWAP2 PUSH2 0x1150 JUMP JUMPDEST DUP7 SLOAD DUP13 MLOAD PUSH4 0xA9059CBB PUSH1 0xE0 SHL DUP2 MSTORE SWAP1 DUP8 AND PUSH1 0x1 PUSH1 0x1 PUSH1 0xA0 SHL SUB AND DUP11 DUP3 ADD SWAP1 DUP2 MSTORE PUSH1 0x20 DUP2 ADD SWAP3 SWAP1 SWAP3 MSTORE SWAP4 DUP5 SWAP3 SWAP2 DUP4 SWAP2 DUP10 SWAP2 DUP4 SWAP2 PUSH1 0x40 SWAP1 SWAP2 ADD SWAP1 JUMP JUMPDEST SUB SWAP3 GAS CALL SWAP1 DUP2 ISZERO PUSH2 0x17B4 JUMPI DUP5 SWAP2 PUSH2 0x1797 JUMPI JUMPDEST POP ISZERO PUSH2 0x1755 JUMPI DUP10 DUP7 CODESIZE DUP1 PUSH2 0x1639 JUMP JUMPDEST DUP8 MLOAD PUSH3 0x461BCD PUSH1 0xE5 SHL DUP2 MSTORE DUP1 DUP7 ADD DUP8 SWAP1 MSTORE PUSH1 0x1A DUP2 DUP7 ADD MSTORE PUSH32 0x746F6B656E2064757374207472616E73666572206661696C6564000000000000 PUSH1 0x44 DUP3 ADD MSTORE PUSH1 0x64 SWAP1 REVERT JUMPDEST PUSH2 0x17AE SWAP2 POP DUP8 RETURNDATASIZE DUP10 GT PUSH2 0x3B9 JUMPI PUSH2 0x3AB DUP2 DUP4 PUSH2 0x1204 JUMP JUMPDEST CODESIZE PUSH2 0x1746 JUMP JUMPDEST DUP10 MLOAD RETURNDATASIZE DUP7 DUP3 RETURNDATACOPY RETURNDATASIZE SWAP1 REVERT JUMPDEST PUSH2 0x17DE SWAP2 POP DUP5 RETURNDATASIZE DUP7 GT PUSH2 0x17E4 JUMPI JUMPDEST PUSH2 0x17D6 DUP2 DUP4 PUSH2 0x1204 JUMP JUMPDEST DUP2 ADD SWAP1 PUSH2 0x1429 JUMP JUMPDEST CODESIZE PUSH2 0x1615 JUMP JUMPDEST POP RETURNDATASIZE PUSH2 0x17CC JUMP JUMPDEST DUP11 MLOAD RETURNDATASIZE DUP8 DUP3 RETURNDATACOPY RETURNDATASIZE SWAP1 REVERT JUMPDEST DUP6 SWAP7 POP PUSH2 0x1812 DUP4 SWAP2 PUSH1 0x44 SWAP7 SWAP8 RETURNDATASIZE DUP11 GT PUSH2 0x17E4 JUMPI PUSH2 0x17D6 DUP2 DUP4 PUSH2 0x1204 JUMP JUMPDEST SWAP7 SWAP6 SWAP5 POP PUSH2 0x15DE JUMP JUMPDEST DUP12 MLOAD RETURNDATASIZE DUP9 DUP3 RETURNDATACOPY RETURNDATASIZE SWAP1 REVERT JUMPDEST PUSH2 0x183D SWAP2 SWAP4 POP DUP3 RETURNDATASIZE DUP5 GT PUSH2 0x17E4 JUMPI PUSH2 0x17D6 DUP2 DUP4 PUSH2 0x1204 JUMP JUMPDEST SWAP2 CODESIZE PUSH2 0x15B4 JUMP JUMPDEST SWAP11 POP SWAP9 POP SWAP6 POP PUSH1 0x60 DUP10 RETURNDATASIZE PUSH1 0x60 GT PUSH2 0x1880 JUMPI JUMPDEST DUP2 PUSH2 0x1863 PUSH1 0x60 SWAP4 DUP4 PUSH2 0x1204 JUMP JUMPDEST DUP2 ADD SUB SLT PUSH2 0x190 JUMPI DUP9 MLOAD SWAP6 DUP8 DUP7 DUP12 ADD MLOAD SWAP11 ADD MLOAD SWAP7 SWAP10 SWAP7 SWAP9 CODESIZE PUSH2 0x1587 JUMP JUMPDEST RETURNDATASIZE SWAP2 POP PUSH2 0x1856 JUMP JUMPDEST DUP8 MLOAD RETURNDATASIZE DUP5 DUP3 RETURNDATACOPY RETURNDATASIZE SWAP1 REVERT JUMPDEST POP POP PUSH4 0x4E487B71 PUSH1 0xE0 SHL DUP3 MSTORE POP PUSH1 0x11 DUP4 MSTORE REVERT JUMPDEST PUSH2 0x18BB SWAP1 DUP6 RETURNDATASIZE DUP8 GT PUSH2 0x3B9 JUMPI PUSH2 0x3AB DUP2 DUP4 PUSH2 0x1204 JUMP JUMPDEST POP CODESIZE PUSH2 0x1522 JUMP JUMPDEST PUSH2 0x18D8 SWAP1 DUP4 RETURNDATASIZE DUP6 GT PUSH2 0x3B9 JUMPI PUSH2 0x3AB DUP2 DUP4 PUSH2 0x1204 JUMP JUMPDEST POP CODESIZE PUSH2 0x14E7 JUMP JUMPDEST DUP9 MLOAD RETURNDATASIZE DUP6 DUP3 RETURNDATACOPY RETURNDATASIZE SWAP1 REVERT JUMPDEST PUSH1 0x40 MLOAD PUSH3 0x461BCD PUSH1 0xE5 SHL DUP2 MSTORE PUSH1 0x20 PUSH1 0x4 DUP3 ADD MSTORE PUSH1 0x12 PUSH1 0x24 DUP3 ADD MSTORE PUSH18 0x19195E081C9BDD5D195C881B9BDD081CD95D PUSH1 0x72 SHL PUSH1 0x44 DUP3 ADD MSTORE PUSH1 0x64 SWAP1 REVERT JUMPDEST DUP1 ISZERO PUSH2 0x10B6 JUMPI PUSH2 0x1956 PUSH1 0x2 SLOAD PUSH32 0x0 SWAP1 PUSH2 0x10BC JUMP JUMPDEST SWAP1 PUSH2 0x19A2 PUSH1 0x3 SLOAD SWAP3 PUSH2 0x199C PUSH2 0x198B PUSH32 0x0 DUP7 PUSH2 0x10BC JUMP JUMPDEST SWAP4 PUSH2 0x1996 DUP6 DUP5 PUSH2 0x1032 JUMP JUMPDEST SWAP3 PUSH2 0x10BC JUMP JUMPDEST SWAP1 PUSH2 0x105B JUMP JUMPDEST DUP1 DUP3 GT ISZERO PUSH2 0x19B3 JUMPI PUSH2 0x10A5 SWAP2 PUSH2 0x1150 JUMP JUMPDEST POP POP POP PUSH1 0x0 SWAP1 JUMP JUMPDEST PUSH1 0x2 SLOAD SWAP1 PUSH2 0x19A2 PUSH2 0x19EC PUSH32 0x0 DUP5 PUSH2 0x10BC JUMP JUMPDEST SWAP2 PUSH2 0x199C PUSH2 0x1A1D PUSH1 0x3 SLOAD PUSH32 0x0 SWAP1 PUSH2 0x10BC JUMP JUMPDEST SWAP2 PUSH2 0x1996 DUP4 DUP7 PUSH2 0x1032 JUMP JUMPDEST PUSH1 0xFF PUSH1 0x6 SLOAD PUSH1 0xA8 SHR AND PUSH2 0x1A48 JUMPI PUSH1 0x2 SLOAD PUSH1 0x4 SLOAD GT PUSH2 0x1A48 JUMPI PUSH2 0x1A48 PUSH2 0x1448 JUMP JUMPDEST JUMP INVALID LOG2 PUSH5 0x6970667358 0x22 SLT KECCAK256 LOG2 0xD2 0xC2 OR NUMBER DUP8 EQ TIMESTAMP 0xCE 0x4B MUL 0xC5 SSTORE 0x4B 0xB6 CHAINID 0xAD 0x2F 0x4C 0xAA 0xAE 0x2B SWAP2 SLT EXP BASEFEE PUSH25 0x32FDC24A2864736F6C63430008180033000000000000000000 "},"methodIdentifiers":{"BPS_DENOMINATOR()":"e1a45218","buy(uint256)":"d96a094a","configureFees(address,uint256)":"2a2c6972","configureMigration(address,address,uint256)":"8c575aa3","dexRouter()":"0758d924","ethReserve()":"d62ccb3f","factory()":"c45a0155","feeBps()":"24a9d853","feeRecipient()":"46904840","graduateNow()":"25217724","graduated()":"e7c2b772","graduatedAt()":"7f544e49","graduationTargetEth()":"f95a02d0","lpRecipient()":"452e68dd","migratedPair()":"1ad15bbc","quoteBuy(uint256)":"4beb394c","quoteSell(uint256)":"a64190c4","seed(uint256)":"95564837","seeded()":"334041a6","sell(uint256,uint256)":"d79875eb","spotPrice()":"398482d8","targetProgressBps()":"2760eca1","token()":"fc0c546a","tokenReserve()":"cbcb3171","triggerGraduation()":"4329742d","virtualEthReserve()":"52b86d2b","virtualTokenReserve()":"343ee3b7"}}}}}