{
  "_format": "hh-sol-artifact-1",
  "contractName": "MemeLaunchFactory",
  "sourceName": "contracts/MemeLaunchFactory.sol",
  "abi": [
    {
      "inputs": [
        {
          "internalType": "address",
          "name": "_feeRecipient",
          "type": "address"
        },
        {
          "internalType": "address",
          "name": "_platformFeeRecipient",
          "type": "address"
        },
        {
          "internalType": "uint256",
          "name": "_defaultFeeBps",
          "type": "uint256"
        },
        {
          "internalType": "uint256",
          "name": "_launchFeeWei",
          "type": "uint256"
        },
        {
          "internalType": "uint256",
          "name": "_defaultVirtualEthReserve",
          "type": "uint256"
        },
        {
          "internalType": "uint256",
          "name": "_defaultVirtualTokenReserve",
          "type": "uint256"
        },
        {
          "internalType": "uint256",
          "name": "_defaultGraduationTargetEth",
          "type": "uint256"
        },
        {
          "internalType": "address",
          "name": "_defaultDexRouter",
          "type": "address"
        },
        {
          "internalType": "address",
          "name": "_defaultLpRecipient",
          "type": "address"
        }
      ],
      "stateMutability": "nonpayable",
      "type": "constructor"
    },
    {
      "anonymous": false,
      "inputs": [
        {
          "indexed": false,
          "internalType": "address",
          "name": "feeRecipient",
          "type": "address"
        },
        {
          "indexed": false,
          "internalType": "address",
          "name": "platformFeeRecipient",
          "type": "address"
        },
        {
          "indexed": false,
          "internalType": "uint256",
          "name": "feeBps",
          "type": "uint256"
        },
        {
          "indexed": false,
          "internalType": "uint256",
          "name": "launchFeeWei",
          "type": "uint256"
        },
        {
          "indexed": false,
          "internalType": "uint256",
          "name": "virtualEthReserve",
          "type": "uint256"
        },
        {
          "indexed": false,
          "internalType": "uint256",
          "name": "virtualTokenReserve",
          "type": "uint256"
        },
        {
          "indexed": false,
          "internalType": "uint256",
          "name": "graduationTargetEth",
          "type": "uint256"
        },
        {
          "indexed": false,
          "internalType": "address",
          "name": "dexRouter",
          "type": "address"
        },
        {
          "indexed": false,
          "internalType": "address",
          "name": "lpRecipient",
          "type": "address"
        }
      ],
      "name": "DefaultsUpdated",
      "type": "event"
    },
    {
      "anonymous": false,
      "inputs": [
        {
          "indexed": false,
          "internalType": "bool",
          "name": "enabled",
          "type": "bool"
        }
      ],
      "name": "InstantLaunchEnabledUpdated",
      "type": "event"
    },
    {
      "anonymous": false,
      "inputs": [
        {
          "indexed": true,
          "internalType": "address",
          "name": "creator",
          "type": "address"
        },
        {
          "indexed": false,
          "internalType": "uint256",
          "name": "ethLiquidity",
          "type": "uint256"
        }
      ],
      "name": "InstantLaunchRequested",
      "type": "event"
    },
    {
      "anonymous": false,
      "inputs": [
        {
          "indexed": true,
          "internalType": "uint256",
          "name": "launchId",
          "type": "uint256"
        },
        {
          "indexed": true,
          "internalType": "address",
          "name": "creator",
          "type": "address"
        },
        {
          "indexed": true,
          "internalType": "address",
          "name": "token",
          "type": "address"
        },
        {
          "indexed": false,
          "internalType": "address",
          "name": "pool",
          "type": "address"
        },
        {
          "indexed": false,
          "internalType": "uint256",
          "name": "totalSupply",
          "type": "uint256"
        },
        {
          "indexed": false,
          "internalType": "uint256",
          "name": "creatorAllocation",
          "type": "uint256"
        },
        {
          "indexed": false,
          "internalType": "uint256",
          "name": "feeBps",
          "type": "uint256"
        },
        {
          "indexed": false,
          "internalType": "uint256",
          "name": "graduationTargetEth",
          "type": "uint256"
        },
        {
          "indexed": false,
          "internalType": "address",
          "name": "dexRouter",
          "type": "address"
        },
        {
          "indexed": false,
          "internalType": "address",
          "name": "lpRecipient",
          "type": "address"
        }
      ],
      "name": "LaunchCreated",
      "type": "event"
    },
    {
      "anonymous": false,
      "inputs": [
        {
          "indexed": true,
          "internalType": "address",
          "name": "payer",
          "type": "address"
        },
        {
          "indexed": true,
          "internalType": "address",
          "name": "recipient",
          "type": "address"
        },
        {
          "indexed": false,
          "internalType": "uint256",
          "name": "amountWei",
          "type": "uint256"
        }
      ],
      "name": "LaunchFeePaid",
      "type": "event"
    },
    {
      "anonymous": false,
      "inputs": [
        {
          "indexed": true,
          "internalType": "address",
          "name": "previousOwner",
          "type": "address"
        },
        {
          "indexed": true,
          "internalType": "address",
          "name": "newOwner",
          "type": "address"
        }
      ],
      "name": "OwnershipTransferred",
      "type": "event"
    },
    {
      "inputs": [],
      "name": "BPS_DENOMINATOR",
      "outputs": [
        {
          "internalType": "uint256",
          "name": "",
          "type": "uint256"
        }
      ],
      "stateMutability": "view",
      "type": "function"
    },
    {
      "inputs": [],
      "name": "BURN_ADDRESS",
      "outputs": [
        {
          "internalType": "address",
          "name": "",
          "type": "address"
        }
      ],
      "stateMutability": "view",
      "type": "function"
    },
    {
      "inputs": [
        {
          "internalType": "string",
          "name": "name",
          "type": "string"
        },
        {
          "internalType": "string",
          "name": "symbol",
          "type": "string"
        },
        {
          "internalType": "string",
          "name": "imageURI",
          "type": "string"
        },
        {
          "internalType": "string",
          "name": "description",
          "type": "string"
        },
        {
          "internalType": "uint256",
          "name": "totalSupply",
          "type": "uint256"
        },
        {
          "internalType": "uint256",
          "name": "creatorAllocationBps",
          "type": "uint256"
        }
      ],
      "name": "createLaunch",
      "outputs": [
        {
          "internalType": "uint256",
          "name": "launchId",
          "type": "uint256"
        },
        {
          "internalType": "address",
          "name": "tokenAddress",
          "type": "address"
        },
        {
          "internalType": "address",
          "name": "poolAddress",
          "type": "address"
        }
      ],
      "stateMutability": "payable",
      "type": "function"
    },
    {
      "inputs": [
        {
          "internalType": "string",
          "name": "name",
          "type": "string"
        },
        {
          "internalType": "string",
          "name": "symbol",
          "type": "string"
        },
        {
          "internalType": "string",
          "name": "imageURI",
          "type": "string"
        },
        {
          "internalType": "string",
          "name": "description",
          "type": "string"
        },
        {
          "internalType": "uint256",
          "name": "totalSupply",
          "type": "uint256"
        },
        {
          "internalType": "uint256",
          "name": "creatorAllocationBps",
          "type": "uint256"
        }
      ],
      "name": "createLaunchInstant",
      "outputs": [
        {
          "internalType": "uint256",
          "name": "launchId",
          "type": "uint256"
        },
        {
          "internalType": "address",
          "name": "tokenAddress",
          "type": "address"
        },
        {
          "internalType": "address",
          "name": "poolAddress",
          "type": "address"
        }
      ],
      "stateMutability": "payable",
      "type": "function"
    },
    {
      "inputs": [],
      "name": "defaultDexRouter",
      "outputs": [
        {
          "internalType": "address",
          "name": "",
          "type": "address"
        }
      ],
      "stateMutability": "view",
      "type": "function"
    },
    {
      "inputs": [],
      "name": "defaultFeeBps",
      "outputs": [
        {
          "internalType": "uint256",
          "name": "",
          "type": "uint256"
        }
      ],
      "stateMutability": "view",
      "type": "function"
    },
    {
      "inputs": [],
      "name": "defaultGraduationTargetEth",
      "outputs": [
        {
          "internalType": "uint256",
          "name": "",
          "type": "uint256"
        }
      ],
      "stateMutability": "view",
      "type": "function"
    },
    {
      "inputs": [],
      "name": "defaultLpRecipient",
      "outputs": [
        {
          "internalType": "address",
          "name": "",
          "type": "address"
        }
      ],
      "stateMutability": "view",
      "type": "function"
    },
    {
      "inputs": [],
      "name": "defaultVirtualEthReserve",
      "outputs": [
        {
          "internalType": "uint256",
          "name": "",
          "type": "uint256"
        }
      ],
      "stateMutability": "view",
      "type": "function"
    },
    {
      "inputs": [],
      "name": "defaultVirtualTokenReserve",
      "outputs": [
        {
          "internalType": "uint256",
          "name": "",
          "type": "uint256"
        }
      ],
      "stateMutability": "view",
      "type": "function"
    },
    {
      "inputs": [],
      "name": "feeRecipient",
      "outputs": [
        {
          "internalType": "address",
          "name": "",
          "type": "address"
        }
      ],
      "stateMutability": "view",
      "type": "function"
    },
    {
      "inputs": [
        {
          "internalType": "uint256",
          "name": "launchId",
          "type": "uint256"
        }
      ],
      "name": "getLaunch",
      "outputs": [
        {
          "components": [
            {
              "internalType": "address",
              "name": "token",
              "type": "address"
            },
            {
              "internalType": "address",
              "name": "pool",
              "type": "address"
            },
            {
              "internalType": "address",
              "name": "creator",
              "type": "address"
            },
            {
              "internalType": "string",
              "name": "name",
              "type": "string"
            },
            {
              "internalType": "string",
              "name": "symbol",
              "type": "string"
            },
            {
              "internalType": "string",
              "name": "imageURI",
              "type": "string"
            },
            {
              "internalType": "string",
              "name": "description",
              "type": "string"
            },
            {
              "internalType": "uint256",
              "name": "totalSupply",
              "type": "uint256"
            },
            {
              "internalType": "uint256",
              "name": "creatorAllocation",
              "type": "uint256"
            },
            {
              "internalType": "uint256",
              "name": "createdAt",
              "type": "uint256"
            }
          ],
          "internalType": "struct MemeLaunchFactory.LaunchInfo",
          "name": "",
          "type": "tuple"
        }
      ],
      "stateMutability": "view",
      "type": "function"
    },
    {
      "inputs": [],
      "name": "getLaunchCount",
      "outputs": [
        {
          "internalType": "uint256",
          "name": "",
          "type": "uint256"
        }
      ],
      "stateMutability": "view",
      "type": "function"
    },
    {
      "inputs": [
        {
          "internalType": "uint256",
          "name": "offset",
          "type": "uint256"
        },
        {
          "internalType": "uint256",
          "name": "limit",
          "type": "uint256"
        }
      ],
      "name": "getLaunches",
      "outputs": [
        {
          "components": [
            {
              "internalType": "address",
              "name": "token",
              "type": "address"
            },
            {
              "internalType": "address",
              "name": "pool",
              "type": "address"
            },
            {
              "internalType": "address",
              "name": "creator",
              "type": "address"
            },
            {
              "internalType": "string",
              "name": "name",
              "type": "string"
            },
            {
              "internalType": "string",
              "name": "symbol",
              "type": "string"
            },
            {
              "internalType": "string",
              "name": "imageURI",
              "type": "string"
            },
            {
              "internalType": "string",
              "name": "description",
              "type": "string"
            },
            {
              "internalType": "uint256",
              "name": "totalSupply",
              "type": "uint256"
            },
            {
              "internalType": "uint256",
              "name": "creatorAllocation",
              "type": "uint256"
            },
            {
              "internalType": "uint256",
              "name": "createdAt",
              "type": "uint256"
            }
          ],
          "internalType": "struct MemeLaunchFactory.LaunchInfo[]",
          "name": "data",
          "type": "tuple[]"
        }
      ],
      "stateMutability": "view",
      "type": "function"
    },
    {
      "inputs": [],
      "name": "instantLaunchEnabled",
      "outputs": [
        {
          "internalType": "bool",
          "name": "",
          "type": "bool"
        }
      ],
      "stateMutability": "view",
      "type": "function"
    },
    {
      "inputs": [],
      "name": "launchFeeWei",
      "outputs": [
        {
          "internalType": "uint256",
          "name": "",
          "type": "uint256"
        }
      ],
      "stateMutability": "view",
      "type": "function"
    },
    {
      "inputs": [],
      "name": "owner",
      "outputs": [
        {
          "internalType": "address",
          "name": "",
          "type": "address"
        }
      ],
      "stateMutability": "view",
      "type": "function"
    },
    {
      "inputs": [],
      "name": "platformFeeRecipient",
      "outputs": [
        {
          "internalType": "address",
          "name": "",
          "type": "address"
        }
      ],
      "stateMutability": "view",
      "type": "function"
    },
    {
      "inputs": [
        {
          "internalType": "address",
          "name": "token",
          "type": "address"
        }
      ],
      "name": "poolByToken",
      "outputs": [
        {
          "internalType": "address",
          "name": "pool",
          "type": "address"
        }
      ],
      "stateMutability": "view",
      "type": "function"
    },
    {
      "inputs": [
        {
          "internalType": "address",
          "name": "newFeeRecipient",
          "type": "address"
        },
        {
          "internalType": "address",
          "name": "newPlatformFeeRecipient",
          "type": "address"
        },
        {
          "internalType": "uint256",
          "name": "newFeeBps",
          "type": "uint256"
        },
        {
          "internalType": "uint256",
          "name": "newLaunchFeeWei",
          "type": "uint256"
        },
        {
          "internalType": "uint256",
          "name": "newVirtualEthReserve",
          "type": "uint256"
        },
        {
          "internalType": "uint256",
          "name": "newVirtualTokenReserve",
          "type": "uint256"
        },
        {
          "internalType": "uint256",
          "name": "newGraduationTargetEth",
          "type": "uint256"
        },
        {
          "internalType": "address",
          "name": "newDexRouter",
          "type": "address"
        },
        {
          "internalType": "address",
          "name": "newLpRecipient",
          "type": "address"
        }
      ],
      "name": "setDefaults",
      "outputs": [],
      "stateMutability": "nonpayable",
      "type": "function"
    },
    {
      "inputs": [
        {
          "internalType": "bool",
          "name": "enabled",
          "type": "bool"
        }
      ],
      "name": "setInstantLaunchEnabled",
      "outputs": [],
      "stateMutability": "nonpayable",
      "type": "function"
    },
    {
      "inputs": [
        {
          "internalType": "address",
          "name": "newOwner",
          "type": "address"
        }
      ],
      "name": "transferOwnership",
      "outputs": [],
      "stateMutability": "nonpayable",
      "type": "function"
    }
  ],
  "bytecode": "0x6080346200030257601f6200619b38819003918201601f191683019291906001600160401b038411838510176200030757816101209284926040968752833981010312620003025762000052816200031d565b906020620000628183016200031d565b848301516060840151608085015160a08601519160c087015193620000996101006200009160e08b016200031d565b99016200031d565b6001600160a01b03999098908a16968715620002be5761012c83116200028b578a169081156200024757841562000203578515620001bf57861562000189578a1697886200013e575b5060018060a01b0319963388600054161760005587600154161760015586600254161760025560035560045560055560065560075560085416176008551660018060a81b0319600954161760095551615e689081620003338239f35b8a8a16620000e2576064908c519062461bcd60e51b82526004820152601560248201527f6c7020726563697069656e7420726571756972656400000000000000000000006044820152fd5b8b5162461bcd60e51b8152600481018a9052600f60248201526e1d185c99d95d081c995c5d5a5c9959608a1b6044820152606490fd5b8b5162461bcd60e51b8152600481018a9052601660248201527f7669727475616c20746f6b656e207265717569726564000000000000000000006044820152606490fd5b8b5162461bcd60e51b8152600481018a9052601460248201527f7669727475616c206574682072657175697265640000000000000000000000006044820152606490fd5b8b5162461bcd60e51b8152600481018a9052601b60248201527f706c6174666f726d20726563697069656e7420726571756972656400000000006044820152606490fd5b8b5162461bcd60e51b8152600481018a9052600c60248201526b0cccaca40e8dede40d0d2ced60a31b6044820152606490fd5b8b5162461bcd60e51b8152600481018a9052601660248201527f66656520726563697069656e74207265717569726564000000000000000000006044820152606490fd5b600080fd5b634e487b7160e01b600052604160045260246000fd5b51906001600160a01b0382168203620003025756fe60808060405260043610156200001457600080fd5b60003560e01c9081630b0420bb14620022a3575080631036338c14620017a257806313ed4aa614620017775780631c8c0d9214620017575780631d30828d14620016d95780634690484014620016ae5780635930d3ce146200161a57806363f0eb0414620015fa57806382315e5014620015d257806383eeb3bb14620015b25780638da5cb5b146200158757806393a8e04d146200156757806396875aa0146200069e5780639b3b9f9814620006135780639ff0251f14620005f3578063b82942a51462000290578063bcae25a41462000270578063d578192c1462000245578063e1a452181462000226578063eb13554f14620001fb578063f2fde38b146200014c5763fccc2813146200012857600080fd5b34620001475760003660031901126200014757602060405161dead8152f35b600080fd5b3462000147576020366003190112620001475762000169620022df565b6000546001600160a01b038082169262000185338514620024a6565b16918215620001c55782907f8be0079c531659141344cd1fd0a4f28419497f9722a3daafe3b4186f6b6457e0600080a36001600160a01b03191617600055005b60405162461bcd60e51b815260206004820152600e60248201526d1bdddb995c881c995c5d5a5c995960921b6044820152606490fd5b346200014757600036600319011262000147576002546040516001600160a01b039091168152602090f35b3462000147576000366003190112620001475760206040516127108152f35b346200014757600036600319011262000147576008546040516001600160a01b039091168152602090f35b346200014757600036600319011262000147576020600354604051908152f35b3462000147576101203660031901126200014757620002ae620022df565b6024356001600160a01b0381168103620001475760649160e4356001600160a01b0381168103620001475761010435916001600160a01b038316830362000147576200030660018060a01b03600054163314620024a6565b6001600160a01b0316928315620005b6576001600160a01b03811615620005725761012c604435116200053f5760843515620005045760a43515620004c75760c4351562000491576001600160a01b03821662000446575b907f62de0c78f593b14f1d09c895ce83a42ea45a7d77a716a05432a53193305b3c5a946101209493926001600160601b0360a01b8581600154161760015560018060a01b038216816002541617600255604435600355823560045560843560055560a43560065560c43560075560018060a01b03841681600854161760085560018060a01b03851690600954161760095560405194855260018060a01b031660208501526044356040850152356060840152608435608084015260a43560a084015260c43560c084015260018060a01b031660e083015260018060a01b0316610100820152a1005b6001600160a01b0383166200035e5760405162461bcd60e51b81526020600482015260156024820152741b1c081c9958da5c1a595b9d081c995c5d5a5c9959605a1b60448201528590fd5b60405162461bcd60e51b815260206004820152600f60248201526e1d185c99d95d081c995c5d5a5c9959608a1b60448201528590fd5b60405162461bcd60e51b81526020600482015260166024820152751d9a5c9d1d585b081d1bdad95b881c995c5d5a5c995960521b60448201528590fd5b60405162461bcd60e51b81526020600482015260146024820152731d9a5c9d1d585b08195d1a081c995c5d5a5c995960621b60448201528590fd5b60405162461bcd60e51b815260206004820152600c60248201526b0cccaca40e8dede40d0d2ced60a31b60448201528590fd5b60405162461bcd60e51b815260206004820152601b60248201527f706c6174666f726d20726563697069656e74207265717569726564000000000060448201528590fd5b60405162461bcd60e51b8152602060048201526016602482015275199959481c9958da5c1a595b9d081c995c5d5a5c995960521b60448201528590fd5b346200014757600036600319011262000147576020600a54604051908152f35b3462000147576040366003190112620001475762000636602435600435620027a0565b60405160209160208201926020835281518094526040830193602060408260051b8601019301916000955b8287106200066f5785850386f35b9091929382806200068d600193603f198a82030186528851620023fd565b960192019601959291909262000661565b620006a93662002326565b92979891909460095460ff8160a01c161562001522576008546001600160a01b031615620014e8576001600160a01b031615620014ac57600454803411156200145c57620006f8903462002765565b9462000703620028a7565b6040518681527fac9d85dc25663b5cc567afaed6bb7823377f8f9f4164bc741a6ed341c04a8ec760203392a26000918b1562001427578815620013f0578715620013b9576107d086116200137e57600254604051906001600160a01b03166001600160401b0361159083019081119083111762001368578190620007bc8f8d8f91620007a590611590620048a3883960c0611590880181815201908d620029d9565b9161159086018303602061159088010152620029d9565b6115908301604081018d905230606082015233608082015260a0019190915203906000f09889156200120f576002546001600160a01b031633149a620008028c62002a14565b988b60018060a01b0360015416600354600554600654906007549260018060a01b0360085416946040519687611e5e8101106001600160401b03611e5e8a0111176200136857611e5e62002a4589396001600160a01b03908116611e5e890190815230602082015260408101929092526060820192909252608081019290925260a082019290925260c081019290925260e0820192909252908c166101008201528190036101200191f09b8c156200120f578a89810204890362001352578b6200091360208f620008db8f6127108f8202049062002765565b60405163a9059cbb60e01b81526001600160a01b03909216600483015260248201819052939092839190829060009082906044820190565b03926001600160a01b03165af19081156200120f576000916200132e575b5015620012f2578c8a8d612710828202046200121b575b5050506001600160a01b038e163b15620001475760008e602482936040519485938492639556483760e01b8452600484015260018060a01b03165af180156200120f57620011f8575b506001600160a01b038d163b15620011815785808e6004604051809481936309485dc960e21b835260018060a01b03165af1801562001185578e918891620011dd575b50506040516306b456ef60e21b815290602090829060049082906001600160a01b03165afa9081156200118557879162001194575b506001600160a01b03811662001112575b5015620010a6575b6001600160a01b038b81168652600b6020526040862080546001600160a01b031916918e16919091179055600a549c9d600160401b8e1015620010925762000a7e8e60018101600a5562000a768162002584565b505062002584565b509760018060a01b038d166001600160601b0360a01b8a54161789558d60018a019060018060a01b03166001600160601b0360a01b82541617905560028901336001600160601b0360a01b8254161790556001600160401b0382116200107e57819062000aef60038b0154620025d5565b601f811162001029575b508790601f831160011462000fb857889262000fac575b50508160011b916000199060031b1c19161760038801555b6001600160401b03821162000f9857819062000b486004890154620025d5565b601f811162000f43575b508590601f831160011462000ed257869262000ec6575b50508160011b916000199060031b1c19161760048601555b6001600160401b03821162000eb257819062000ba16005870154620025d5565b601f811162000e5d575b508390601f831160011462000dec57849262000de0575b50508160011b916000199060031b1c19161760058401555b6001600160401b03821162000dcc5762000bf86006840154620025d5565b601f811162000d7f575b5080601f831160011462000d07579062000cf798999a8362000cfb575b50508160011b916000199060031b1c19161760068201555b8360078201556127108285020460088201556009429101556003546007549061271060018060a01b0360085416936040519660018060a01b038b168852806020890152020460408601526060850152608084015260a083015260018060a01b031660c082015260018060a01b03821690857fdc7fea29d21f6a39e7f1b42ad6100f8cdaff48535852696a1155de8a81d87a0660e03393a4604080519485526001600160a01b03918216602086015292169183019190915281906060820190565b0390f35b013590508a8062000c1f565b9060068401825260208220915b601f198416811062000d6657509062000cf798999a8392600194601f1981161062000d4b575b505050811b01600682015562000c37565b0135600019600384901b60f8161c191690558a808062000d3a565b9091602060018192858f01358155019301910162000d14565b60068401825260208220601f840160051c8101916020851062000dc1575b601f0160051c01905b81811062000db5575062000c02565b82815560010162000da6565b909150819062000d9d565b634e487b7160e01b81526041600452602490fd5b013590508c8062000bc2565b60058701855260208520859450915b601f198416851062000e44576001945083601f1981161062000e29575b505050811b01600584015562000bda565b0135600019600384901b60f8161c191690558c808062000e18565b8181013583556020948501946001909301920162000dfb565b90915060058601845260208420601f840160051c81016020851062000eaa575b90849392915b601f830160051c8201811062000e9b57505062000bab565b86815585945060010162000e83565b508062000e7d565b634e487b7160e01b83526041600452602483fd5b013590508e8062000b69565b60048901875260208720879450915b601f198416851062000f2a576001945083601f1981161062000f0f575b505050811b01600486015562000b81565b0135600019600384901b60f8161c191690558e808062000efe565b8181013583556020948501946001909301920162000ee1565b90915060048801865260208620601f840160051c81016020851062000f90575b90849392915b601f830160051c8201811062000f8157505062000b52565b88815585945060010162000f69565b508062000f63565b634e487b7160e01b85526041600452602485fd5b01359050388062000b10565b60038b01895260208920899450915b601f198416851062001010576001945083601f1981161062000ff5575b505050811b01600388015562000b28565b0135600019600384901b60f8161c1916905538808062000fe4565b8181013583556020948501946001909301920162000fc7565b90915060038a01885260208820601f840160051c81016020851062001076575b90849392915b601f830160051c820181106200106757505062000af9565b8a81558594506001016200104f565b508062001049565b634e487b7160e01b87526041600452602487fd5b634e487b7160e01b86526041600452602486fd5b6001600160a01b038b163b15620011035784808c600460405180948193636e258e0760e11b835260018060a01b03165af180156200110757620010eb575b5062000a22565b620010f78691620024fd565b62001103578e620010e4565b8480fd5b6040513d88823e3d90fd5b6001600160a01b038d163b156200119057868d6024829360405194859384926315c6deb960e31b845260018060a01b0316600484015260018060a01b03165af18015620011855790879162001169575b5062000a1a565b6200117490620024fd565b6200118157853862001162565b8580fd5b6040513d89823e3d90fd5b8680fd5b90506020813d602011620011d4575b81620011b26020938362002511565b810103126200119057516001600160a01b038116810362001190573862000a09565b3d9150620011a3565b620011ea919250620024fd565b62001181578c8638620009d4565b62001205919650620024fd565b6000948f62000991565b6040513d6000823e3d90fd5b60405163a9059cbb60e01b815233600482015261271091909202046024820152906020908290816000816044810103926001600160a01b03165af19081156200120f57600091620012bc575b501562001277578c8a8d62000948565b60405162461bcd60e51b815260206004820152601760248201527f63726561746f72207472616e73666572206661696c65640000000000000000006044820152606490fd5b620012e3915060203d602011620012ea575b620012da818362002511565b810190620029fa565b3862001267565b503d620012ce565b60405162461bcd60e51b81526020600482015260146024820152731c1bdbdb081d1c985b9cd9995c8819985a5b195960621b6044820152606490fd5b6200134b915060203d602011620012ea57620012da818362002511565b3862000931565b634e487b7160e01b600052601160045260246000fd5b634e487b7160e01b600052604160045260246000fd5b60405162461bcd60e51b81526020600482015260136024820152720c2d8d8dec6c2e8d2dedc40e8dede40d0d2ced606b1b6044820152606490fd5b60405162461bcd60e51b815260206004820152600f60248201526e1cdd5c1c1b1e481c995c5d5a5c9959608a1b6044820152606490fd5b60405162461bcd60e51b815260206004820152600f60248201526e1cde5b589bdb081c995c5d5a5c9959608a1b6044820152606490fd5b60405162461bcd60e51b815260206004820152600d60248201526c1b985b59481c995c5d5a5c9959609a1b6044820152606490fd5b60405162461bcd60e51b815260206004820152602260248201527f696e73756666696369656e742065746820666f72206665652b6c697175696469604482015261747960f01b6064820152608490fd5b60405162461bcd60e51b81526020600482015260146024820152731b1c081c9958da5c1a595b9d081b9bdd081cd95d60621b6044820152606490fd5b60405162461bcd60e51b815260206004820152601260248201527119195e081c9bdd5d195c881b9bdd081cd95d60721b6044820152606490fd5b60405162461bcd60e51b815260206004820152601760248201527f696e7374616e74206c61756e63682064697361626c65640000000000000000006044820152606490fd5b346200014757600036600319011262000147576020600654604051908152f35b346200014757600036600319011262000147576000546040516001600160a01b039091168152602090f35b346200014757600036600319011262000147576020600454604051908152f35b34620001475760003660031901126200014757602060ff60095460a01c166040519015158152f35b346200014757600036600319011262000147576020600754604051908152f35b346200014757602036600319011262000147576004356200163a62002533565b50600a548110156200167557620016606200165962000cf79262002584565b50620026c3565b604051918291602083526020830190620023fd565b60405162461bcd60e51b81526020600482015260116024820152701a5b9d985b1a59081b185d5b98da081a59607a1b6044820152606490fd5b346200014757600036600319011262000147576001546040516001600160a01b039091168152602090f35b34620001475760203660031901126200014757600435801515809103620001475760207f5f4247e7fdb76d82ba765513241c1825794e02c05dfa525d343d1df3cdf214b3916200173560018060a01b03600054163314620024a6565b6009805460ff60a01b191660a083901b60ff60a01b16179055604051908152a1005b346200014757600036600319011262000147576020600554604051908152f35b346200014757600036600319011262000147576009546040516001600160a01b039091168152602090f35b620017ad3662002326565b92979891909495969360045434036200226857620017ca620028a7565b6000908a1562001427578815620013f0578615620013b9576107d085116200137e57600254604051906001600160a01b03166001600160401b0361159083019081119083111762001368578190620018546200183c8f611590620048a3863960c0611590860181815201908a620029d9565b611590840181036020611590860101528d8b620029d9565b6115908301604081018c905230606082015233608082015260a0019190915203906000f09788156200120f576002546001600160a01b03163314996200189a8b62002a14565b978a60018060a01b0360015416600354600554600654906007549260018060a01b0360085416946040519687611e5e8101106001600160401b03611e5e8a0111176200136857611e5e62002a4589396001600160a01b03908116611e5e890190815230602082015260408101929092526060820192909252608081019290925260a082019290925260c081019290925260e0820192909252908b1661010082015281900361012001906000f09b8c156200120f578a89810204890362001352578b6200197560208f620008db8f6127108f8202049062002765565b03926001600160a01b03165af19081156200120f5760009162002244575b5015620012f2578c8a8d61271082820204620021c4575b5050506001600160a01b038e163b15620001475760008e602482936040519485938492639556483760e01b8452600484015260018060a01b03165af180156200120f57620021ad575b508562001fe6575b506001600160a01b038b81168652600b6020526040862080546001600160a01b031916918e16919091179055600a549c9d600160401b8e1015620010925762001a508e60018101600a5562000a768162002584565b509760018060a01b038d166001600160601b0360a01b8a54161789558d60018a019060018060a01b03166001600160601b0360a01b82541617905560028901336001600160601b0360a01b8254161790556001600160401b0382116200107e57819062001ac160038b0154620025d5565b601f811162001f91575b508790601f831160011462001f2057889262001f14575b50508160011b916000199060031b1c19161760038801555b6001600160401b03821162000f9857819062001b1a6004890154620025d5565b601f811162001ebf575b508590601f831160011462001e4e57869262001e42575b50508160011b916000199060031b1c19161760048601555b6001600160401b03821162000eb257819062001b736005870154620025d5565b601f811162001ded575b508390601f831160011462001d7c57849262001d70575b50508160011b916000199060031b1c19161760058401555b6001600160401b03821162000dcc5762001bca6006840154620025d5565b601f811162001d23575b5080601f831160011462001cc7579062000cf798999a8362000cfb5750508160011b916000199060031b1c19161760068201558360078201556127108285020460088201556009429101556003546007549061271060018060a01b0360085416936040519660018060a01b038b168852806020890152020460408601526060850152608084015260a083015260018060a01b031660c082015260018060a01b03821690857fdc7fea29d21f6a39e7f1b42ad6100f8cdaff48535852696a1155de8a81d87a0660e03393a4604080519485526001600160a01b03918216602086015292169183019190915281906060820190565b9060068401825260208220915b601f198416811062001d0a57509062000cf798999a8392600194601f1981161062000d4b57505050811b01600682015562000c37565b9091602060018192858f01358155019301910162001cd4565b60068401825260208220601f840160051c8101916020851062001d65575b601f0160051c01905b81811062001d59575062001bd4565b82815560010162001d4a565b909150819062001d41565b013590508c8062001b94565b60058701855260208520859450915b601f198416851062001dd4576001945083601f1981161062001db9575b505050811b01600584015562001bac565b0135600019600384901b60f8161c191690558c808062001da8565b8181013583556020948501946001909301920162001d8b565b90915060058601845260208420601f840160051c81016020851062001e3a575b90849392915b601f830160051c8201811062001e2b57505062001b7d565b86815585945060010162001e13565b508062001e0d565b013590508e8062001b3b565b60048901875260208720879450915b601f198416851062001ea6576001945083601f1981161062001e8b575b505050811b01600486015562001b53565b0135600019600384901b60f8161c191690558e808062001e7a565b8181013583556020948501946001909301920162001e5d565b90915060048801865260208620601f840160051c81016020851062001f0c575b90849392915b601f830160051c8201811062001efd57505062001b24565b88815585945060010162001ee5565b508062001edf565b01359050388062001ae2565b60038b01895260208920899450915b601f198416851062001f78576001945083601f1981161062001f5d575b505050811b01600388015562001afa565b0135600019600384901b60f8161c1916905538808062001f4c565b8181013583556020948501946001909301920162001f2f565b90915060038a01885260208820601f840160051c81016020851062001fde575b90849392915b601f830160051c8201811062001fcf57505062001acb565b8a815585945060010162001fb7565b508062001fb1565b6001600160a01b038d163b15620011815785808e6004604051809481936309485dc960e21b835260018060a01b03165af1801562001185578e91889162002192575b50506040516306b456ef60e21b815290602090829060049082906001600160a01b03165afa9081156200118557879162002149575b506001600160a01b038116620020da575b50156200207d575b8e620019fb565b6001600160a01b038b163b15620011035784808c600460405180948193636e258e0760e11b835260018060a01b03165af180156200110757620020c2575b5062002076565b620020ce8691620024fd565b62001103578e620020bb565b6001600160a01b038d163b156200119057868d6024829360405194859384926315c6deb960e31b845260018060a01b0316600484015260018060a01b03165af18015620011855790879162002131575b506200206e565b6200213c90620024fd565b620011815785386200212a565b90506020813d60201162002189575b81620021676020938362002511565b810103126200119057516001600160a01b03811681036200119057386200205d565b3d915062002158565b6200219f919250620024fd565b62001181578c863862002028565b620021ba919650620024fd565b6000948f620019f3565b60405163a9059cbb60e01b815233600482015261271091909202046024820152906020908290816000816044810103926001600160a01b03165af19081156200120f5760009162002220575b501562001277578c8a8d620019aa565b6200223d915060203d602011620012ea57620012da818362002511565b3862002210565b62002261915060203d602011620012ea57620012da818362002511565b3862001993565b60405162461bcd60e51b81526020600482015260136024820152720d8c2eadcc6d040cccaca40dad2e6dac2e8c6d606b1b6044820152606490fd5b346200014757602036600319011262000147576020906001600160a01b0380620022cc620022df565b16600052600b8352604060002054168152f35b600435906001600160a01b03821682036200014757565b9181601f8401121562000147578235916001600160401b0383116200014757602083818601950101116200014757565b60c060031982011262000147576001600160401b03906004358281116200014757816200235691600401620022f6565b939093926024358181116200014757836200237491600401620022f6565b939093926044358381116200014757826200239291600401620022f6565b939093926064359182116200014757620023af91600401620022f6565b90916084359060a43590565b919082519283825260005b848110620023e8575050826000602080949584010152601f8019910116010190565b602081830181015184830182015201620023c6565b9062002483620024706200245d6200244a61014060018060a01b038088511687528060208901511660208801526040880151166040870152606087015190806060880152860190620023bb565b60808601518582036080870152620023bb565b60a085015184820360a0860152620023bb565b60c084015183820360c0850152620023bb565b9160e081015160e083015261010080820151908301526101208091015191015290565b15620024ae57565b60405162461bcd60e51b815260206004820152600a60248201526937b7363c9037bbb732b960b11b6044820152606490fd5b61014081019081106001600160401b038211176200136857604052565b6001600160401b0381116200136857604052565b90601f801991011681019081106001600160401b038211176200136857604052565b604051906200254282620024e0565b8161012060009182815282602082015282604082015260608082015260606080820152606060a0820152606060c08201528260e0820152826101008201520152565b600a54811015620025bf57600a9081600052027fc65a7bb8d6351c1cf70c95a316cc6a92839c986682d98bc35f958f4883f9d2a80190600090565b634e487b7160e01b600052603260045260246000fd5b90600182811c9216801562002607575b6020831014620025f157565b634e487b7160e01b600052602260045260246000fd5b91607f1691620025e5565b906040519182600082546200262781620025d5565b908184526020946001916001811690816000146200269f57506001146200265c575b5050506200265a9250038362002511565b565b600090815285812095935091905b818310620026865750506200265a935082010138808062002649565b855488840185015294850194879450918301916200266a565b925050506200265a94925060ff191682840152151560051b82010138808062002649565b90604051620026d281620024e0565b6101206009829460018060a01b0380825416855280600183015416602086015260028201541660408501526200270b6003820162002612565b60608501526200271e6004820162002612565b6080850152620027316005820162002612565b60a0850152620027446006820162002612565b60c0850152600781015460e085015260088101546101008501520154910152565b919082039182116200135257565b6001600160401b038111620013685760051b60200190565b8051821015620025bf5760209160051b010190565b600a549291838210156200287f57810192838211620013525780841162002876575b50620027cf818462002765565b92620027db8462002773565b93620027eb604051958662002511565b808552620027fc601f199162002773565b0160005b8181106200285c5750508360005b8284106200281c5750505050565b6200282b620016598562002584565b6200283782846200278b565b526200284481836200278b565b5060001981146200135257600193840193016200280e565b6020906200286962002533565b8282890101520162002800565b925038620027c2565b50509050604051602081018181106001600160401b0382111762001368576040526000815290565b60045480341062002994578015620029915760008080808060018060a01b039586600254165af1903d156200298a573d906001600160401b03821162000dcc576040519162002901601f8201601f19166020018462002511565b825260203d92013e5b156200294557600254166004546040519081527f4cef2d27cdf43d743c3c66401182e93989938e77d1be10f3ab9e6afdf799f83960203392a3565b60405162461bcd60e51b815260206004820152601a60248201527f6c61756e636820666565207472616e73666572206661696c65640000000000006044820152606490fd5b506200290a565b50565b60405162461bcd60e51b815260206004820152601760248201527f696e73756666696369656e74206c61756e6368206665650000000000000000006044820152606490fd5b908060209392818452848401376000828201840152601f01601f1916010190565b908160209103126200014757518015158103620001475790565b6008546001600160a01b03919082161562002a3c5762002a35575061dead90565b6009541690565b50600954169056fe601f62001e5e38819003918201601f19166101009081019290916001600160401b03841183851017620003b257816101209284926040968752833981010312620003ad576200004e81620003c8565b6020906200005e828401620003c8565b916200006c858501620003c8565b926060850151608086015160a08701519160c088015193620000a06101006200009860e08c01620003c8565b9a01620003c8565b6001600160a01b03989097908982161562000378578983161562000341578916998a15620002fd5761012c8411620002ca57841562000286578515620002425786156200020c5789169687620001c1575b5060a05260805260018060a01b03199788600054161760005560015560c05260e052600455836005541617600555169060065416176006553460025551611a809081620003de8239608051818181610723015281816107a50152818161096801528181610cbc0152610dd4015260a051818181610161015281816102f80152818161054501528181610802015261148a015260c051818181610ac4015281816111040152818161193101526119c7015260e051818181610c43015281816110d10152818161196601526119f80152f35b898916620000f1576064908c519062461bcd60e51b82526004820152601560248201527f6c7020726563697069656e7420726571756972656400000000000000000000006044820152fd5b8b5162461bcd60e51b815260048101899052600f60248201526e1d185c99d95d081c995c5d5a5c9959608a1b6044820152606490fd5b8b5162461bcd60e51b815260048101899052601660248201527f7669727475616c20746f6b656e207265717569726564000000000000000000006044820152606490fd5b8b5162461bcd60e51b815260048101899052601460248201527f7669727475616c206574682072657175697265640000000000000000000000006044820152606490fd5b8b5162461bcd60e51b815260048101899052600c60248201526b0cccaca40e8dede40d0d2ced60a31b6044820152606490fd5b8b5162461bcd60e51b815260048101899052601660248201527f66656520726563697069656e74207265717569726564000000000000000000006044820152606490fd5b8b5162461bcd60e51b815260048101899052601060248201526f199858dd1bdc9e481c995c5d5a5c995960821b6044820152606490fd5b8b5162461bcd60e51b815260048101899052600e60248201526d1d1bdad95b881c995c5d5a5c995960921b6044820152606490fd5b600080fd5b634e487b7160e01b600052604160045260246000fd5b51906001600160a01b0382168203620003ad5756fe608060408181526004918236101561001657600080fd5b600092833560e01c9182630758d92414610f00575081631ad15bbc14610ed757816324a9d85314610eb85781632521772414610dbc5781632760eca114610d9f5781632a2c697214610c8d578163334041a614610c66578163343ee3b714610c2b578163398482d814610c075781634329742d14610b57578163452e68dd14610b2e5781634690484014610b065781634beb394c14610ae757816352b86d2b14610aac5781637f544e4914610a8d5781638c575aa31461092b578163955648371461077d578163a64190c414610752578163c45a01551461070e578163cbcb3171146106ef578163d62ccb3f146106d0578163d79875eb14610463578163d96a094a146101fa578163e1a45218146101dd578163e7c2b772146101b6578163f95a02d014610194575063fc0c546a1461014e57600080fd5b34610190578160031936011261019057517f00000000000000000000000000000000000000000000000000000000000000006001600160a01b03168152602090f35b5080fd5b9050346101b257826003193601126101b25760209250549051908152f35b8280fd5b50503461019057816003193601126101905760209060ff60065460a81c1690519015158152f35b505034610190578160031936011261019057602090516127108152f35b91905060209283600319360112610460576006549061021f60ff8360b01c1615610f7b565b60ff60b01b19918216600160b01b1760068190556102539060ff9061024960a082901c8316610fb4565b60a81c161561129a565b341561042e5761271061026860015434611032565b04906102748234611150565b9461027e86611923565b9561028a8715156112d2565b6102978235881015611314565b600354908188116103f2576102f3926102c1898b946102b982956002546110bc565b600255611150565b600355856103cb575b875163a9059cbb60e01b8152339181019182526020820192909252909283918291604090910190565b0381857f00000000000000000000000000000000000000000000000000000000000000006001600160a01b03165af19182156103c0579061033992610393575b50611363565b7fbeae048c6d270d9469f86cf6e8fedda3c60ad770f16c24c9fc131c8e9a09101d83518061037b87339534846040919493926060820195825260208201520152565b0390a2610386611a28565b6006541660065551908152f35b6103b39150873d89116103b9575b6103ab8183611204565b81019061134b565b38610333565b503d6103a1565b8551903d90823e3d90fd5b6103ed858080808a60018060a01b038254165af16103e76113a7565b506113e7565b6102ca565b865162461bcd60e51b81528084018a90526016602482015275696e73756666696369656e74206c697175696469747960501b6044820152606490fd5b825162461bcd60e51b8152808501869052600c60248201526b195d1a081c995c5d5a5c995960a21b6044820152606490fd5b80fd5b919050346101b257806003193601126101b25781356006549061048c60ff8360b01c1615610f7b565b60ff60b01b19918216600160b01b1760068190556104b69060ff9061024960a082901c8316610fb4565b6104c18115156111c0565b6104ca816119bb565b946104d68615156112d2565b600254861161068d576127106104ee60015488611032565b04956104fa8782611150565b95610509602435881015611314565b85516323b872dd60e01b81523382820190815230602082810191909152604082018790526001600160a01b0394929182908190606001038188887f0000000000000000000000000000000000000000000000000000000000000000165af19081156106835761059a929161058391879161066a5750611363565b61058f866003546110bc565b600355600254611150565b600255828080808a335af16105ad6113a7565b5015610631575086807f846c37eef631e0943682d87352ec117c20008eb7f425c9b85ac011a6d4774cc0936106049360209a610614575b505086519485525060208401879052604084015233929081906060820190565b0390a26006541660065551908152f35b81806106299481938254165af16103e76113a7565b8038806105e4565b606490602087519162461bcd60e51b83528201526013602482015272195d1a081d1c985b9cd9995c8819985a5b1959606a1b6044820152fd5b6103b3915060203d6020116103b9576103ab8183611204565b88513d87823e3d90fd5b835162461bcd60e51b8152602081870152601860248201527f696e73756666696369656e7420657468207265736572766500000000000000006044820152606490fd5b5050346101905781600319360112610190576020906002549051908152f35b5050346101905781600319360112610190576020906003549051908152f35b505034610190578160031936011261019057517f00000000000000000000000000000000000000000000000000000000000000006001600160a01b03168152602090f35b905082346104605760203660031901126104605750610771903561123c565b82519182526020820152f35b8391503461019057602090816003193601126101b2578035906001600160a01b03906107cc337f0000000000000000000000000000000000000000000000000000000000000000841614610f40565b6006549160ff8360a01c166108f757846024916107ea8615156111c0565b88516370a0823160e01b8152308582015292839182907f0000000000000000000000000000000000000000000000000000000000000000165afa9081156108ed5790849187916108b8575b501061087f575060ff60a01b1916600160a01b176006556003819055925192835290917fa71ed34ff06af8d6865a8f541aae52d72fa89f0e5ee15f01d48fa6c62c8569149190a180f35b855162461bcd60e51b81529081018490526013602482015272696e73756666696369656e7420746f6b656e7360681b6044820152606490fd5b809250868092503d83116108e6575b6108d18183611204565b810103126108e25783905188610835565b8580fd5b503d6108c7565b87513d88823e3d90fd5b865162461bcd60e51b8152808301869052600e60248201526d185b1c9958591e481cd95959195960921b6044820152606490fd5b8391503461019057606036600319011261019057610947610f25565b602435916001600160a01b03908184168085036108e2576044359261098f817f0000000000000000000000000000000000000000000000000000000000000000163314610f40565b600654906109a360ff8360a81c1615610ff2565b8415610a585785169081610a18575b600580546001600160a01b0319908116939093179055161760065581905593516001600160a01b039182168152911660208201526040810192909252907fbcdc4bff84f936019028a7bcbef6b449550d6334606377b822720e57e94276c490606090a180f35b826109b257885162461bcd60e51b815260208186015260156024820152741b1c081c9958da5c1a595b9d081c995c5d5a5c9959605a1b6044820152606490fd5b885162461bcd60e51b8152602081860152600f60248201526e1d185c99d95d081c995c5d5a5c9959608a1b6044820152606490fd5b5050346101905781600319360112610190576020906008549051908152f35b505034610190578160031936011261019057602090517f00000000000000000000000000000000000000000000000000000000000000008152f35b905082346104605760203660031901126104605750610771903561115d565b505034610190578160031936011261019057905490516001600160a01b039091168152602090f35b50503461019057816003193601126101905760065490516001600160a01b039091168152602090f35b9050346101b257826003193601126101b25760065491610b7d60ff8460b01c1615610f7b565b60ff60b01b19928316600160b01b176006819055610bb19060ff90610ba760a082901c8316610fb4565b60a81c1615610ff2565b600254825411610bcf575050610bc5611448565b6006541660065580f35b906020606492519162461bcd60e51b835282015260126024820152711d185c99d95d081b9bdd081c995858da195960721b6044820152fd5b505034610190578160031936011261019057602090610c246110c9565b9051908152f35b505034610190578160031936011261019057602090517f00000000000000000000000000000000000000000000000000000000000000008152f35b50503461019057816003193601126101905760209060ff60065460a01c1690519015158152f35b919050346101b257806003193601126101b257610ca8610f25565b60243591906001600160a01b0390610ce3337f0000000000000000000000000000000000000000000000000000000000000000841614610f40565b16928315610d685761012c8311610d37575083546001600160a01b031916831784556001829055519081527fe42708d93b95810922305119a3271ca42233da9ebe1e1e503f0e887817a32c7a90602090a280f35b6020606492519162461bcd60e51b8352820152600c60248201526b0cccaca40e8dede40d0d2ced60a31b6044820152fd5b6020606492519162461bcd60e51b835282015260126024820152711c9958da5c1a595b9d081c995c5d5a5c995960721b6044820152fd5b505034610190578160031936011261019057602090610c2461107b565b9050346101b257826003193601126101b257610e02337f00000000000000000000000000000000000000000000000000000000000000006001600160a01b031614610f40565b60065491610e1660ff8460b01c1615610f7b565b60ff60b01b19928316600160b01b176006819055610e409060ff90610ba760a082901c8316610fb4565b600254918215610e8557507f5d6dc6b9835f5448ae2351719684f59735b30dfa8e62677cc6f9e98bd4c08f7f90600354815193845260208401523392a2610bc5611448565b6020606492519162461bcd60e51b8352820152600e60248201526d6e6f20657468207265736572766560901b6044820152fd5b5050346101905781600319360112610190576020906001549051908152f35b50503461019057816003193601126101905760075490516001600160a01b039091168152602090f35b8490346101905781600319360112610190576005546001600160a01b03168152602090f35b600435906001600160a01b0382168203610f3b57565b600080fd5b15610f4757565b60405162461bcd60e51b815260206004820152600c60248201526b6f6e6c7920666163746f727960a01b6044820152606490fd5b15610f8257565b60405162461bcd60e51b815260206004820152600a6024820152697265656e7472616e637960b01b6044820152606490fd5b15610fbb57565b60405162461bcd60e51b815260206004820152600f60248201526e1c1bdbdb081b9bdd081cd959591959608a1b6044820152606490fd5b15610ff957565b60405162461bcd60e51b8152602060048201526011602482015270185b1c9958591e4819dc98591d585d1959607a1b6044820152606490fd5b8181029291811591840414171561104557565b634e487b7160e01b600052601160045260246000fd5b8115611065570490565b634e487b7160e01b600052601260045260246000fd5b60045480156110b6576002546127109182820291808304841490151715611045576110a59161105b565b908082116110b1575090565b905090565b50600090565b9190820180921161104557565b6110f66003547f0000000000000000000000000000000000000000000000000000000000000000906110bc565b80156110b6576111296002547f0000000000000000000000000000000000000000000000000000000000000000906110bc565b90670de0b6b3a7640000918281029281840414901517156110455761114d9161105b565b90565b9190820391821161104557565b60065460ff8160a01c16159081156111b2575b5080156111aa575b6111a15761119e61119961271061119160015485611032565b048093611150565b611923565b91565b50600090600090565b508015611178565b60ff915060a81c1638611170565b156111c757565b60405162461bcd60e51b81526020600482015260156024820152741d1bdad95b88185b5bdd5b9d081c995c5d5a5c9959605a1b6044820152606490fd5b90601f8019910116810190811067ffffffffffffffff82111761122657604052565b634e487b7160e01b600052604160045260246000fd5b60065460ff8160a01c161590811561128c575b508015611284575b6111a157611264906119bb565b80156111a15761119e61271061127c60015484611032565b048092611150565b508015611257565b60ff915060a81c163861124f565b156112a157565b60405162461bcd60e51b815260206004820152600960248201526819dc98591d585d195960ba1b6044820152606490fd5b156112d957565b60405162461bcd60e51b81526020600482015260136024820152721a5b9cdd59999a58da595b9d081bdd5d1c1d5d606a1b6044820152606490fd5b1561131b57565b60405162461bcd60e51b8152602060048201526008602482015267736c69707061676560c01b6044820152606490fd5b90816020910312610f3b57518015158103610f3b5790565b1561136a57565b60405162461bcd60e51b81526020600482015260156024820152741d1bdad95b881d1c985b9cd9995c8819985a5b1959605a1b6044820152606490fd5b3d156113e2573d9067ffffffffffffffff821161122657604051916113d6601f8201601f191660200184611204565b82523d6000602084013e565b606090565b156113ee57565b60405162461bcd60e51b8152602060048201526013602482015272199959481d1c985b9cd9995c8819985a5b1959606a1b6044820152606490fd5b90816020910312610f3b57516001600160a01b0381168103610f3b5790565b6005546001600160a01b039081169081156118e957600160a81b60ff60a81b1960065416176006554260085560035491600254906000928360035583600255807f0000000000000000000000000000000000000000000000000000000000000000169360409283518263095ea7b360e01b80835260049384840152602492828482015289816044816020998a945af180156118df579186918c936118c2575b50600554895191825288166001600160a01b0316868201908152602081019390935291829081906040010381858d5af18015611888576118a5575b50846005541694806006541695610e1042018042116118925760c48b8b6060948f948d519c8d96879563f305d71960e01b87528d8701528b860152896044860152896064860152608485015260a48401525af19788156118885782998397849a611844575b50600554895163c45a015560e01b815290841688828981845afa91821561181b578892918a918893611825575b508c516315ab88c960e31b815293849182905afa91821561181b578389878e95948d948b966117f5575b508160449495969751978896879563e6a4390560e01b8752860152168c840152165afa9081156117eb57918489928e9488916117be575b50169d8e6bffffffffffffffffffffffff60a01b60075416176007558381116116ed575b50505050868111611683575b505085519788525050508401528201524260608201527f71aa8c3702dbbc54247a4e6446450e64a46250dd72707a247ddb01d72eaef44590608090a2565b828092611691898394611150565b908254165af161169f6113a7565b50156116ad57808080611645565b60189060649386519362461bcd60e51b85528401528201527f6574682064757374207472616e73666572206661696c656400000000000000006044820152fd5b611734936116fa91611150565b86548c5163a9059cbb60e01b81529087166001600160a01b03168a8201908152602081019290925293849291839189918391604090910190565b03925af19081156117b4578491611797575b50156117555789863880611639565b875162461bcd60e51b8152808601879052601a818601527f746f6b656e2064757374207472616e73666572206661696c65640000000000006044820152606490fd5b6117ae9150873d89116103b9576103ab8183611204565b38611746565b89513d86823e3d90fd5b6117de9150843d86116117e4575b6117d68183611204565b810190611429565b38611615565b503d6117cc565b8a513d87823e3d90fd5b8596506118128391604496973d8a116117e4576117d68183611204565b969594506115de565b8b513d88823e3d90fd5b61183d919350823d84116117e4576117d68183611204565b91386115b4565b9a50985095506060893d606011611880575b8161186360609383611204565b810103126101905788519587868b01519a01519699969838611587565b3d9150611856565b87513d84823e3d90fd5b5050634e487b7160e01b82525060118352fd5b6118bb90853d87116103b9576103ab8183611204565b5038611522565b6118d890833d85116103b9576103ab8183611204565b50386114e7565b88513d85823e3d90fd5b60405162461bcd60e51b815260206004820152601260248201527119195e081c9bdd5d195c881b9bdd081cd95d60721b6044820152606490fd5b80156110b6576119566002547f0000000000000000000000000000000000000000000000000000000000000000906110bc565b906119a26003549261199c61198b7f0000000000000000000000000000000000000000000000000000000000000000866110bc565b936119968584611032565b926110bc565b9061105b565b808211156119b3576110a591611150565b505050600090565b600254906119a26119ec7f0000000000000000000000000000000000000000000000000000000000000000846110bc565b9161199c611a1d6003547f0000000000000000000000000000000000000000000000000000000000000000906110bc565b916119968386611032565b60ff60065460a81c16611a485760025460045411611a4857611a48611448565b56fea2646970667358221220a2d2c21743871442ce4b02c5554bb646ad2f4caaae2b91120a487832fdc24a2864736f6c63430008180033604060e081523462000551576200159090813803806200001f8162000556565b938439820160c083820312620005515782516001600160401b039390848111620005515782620000519183016200057c565b91602090818301519086821162000551576200006f9184016200057c565b9184810151906200008360608201620005ee565b90620000a060a06200009860808401620005ee565b9201620005ee565b918651156200051d57855115620004e7578315620004b1576001600160a01b03818116979088156200047a578084161562000443578416156200040b5780518a8111620003f5576000978854916001938484811c94168015620003ea575b8a851014620003d6578190601f9485811162000383575b508a908583116001146200031e578c9262000312575b5050600019600383901b1c191690841b1789555b80519b8c11620002fe5782548381811c91168015620002f3575b89821014620002df5780838e921162000295575b505087918c116001146200021e579a8091899a9b9c600080516020620015708339815191529a9262000212575b5050600019600383901b1c191690821b1790555b8360025560805260a05260c0528484526006825280868520558551908152a351610f6c9081620006048239608051818181610217015281816102fa0152610356015260a0518181816106730152610ad4015260c05181818161016c01526107540152f35b0151905038806200019a565b8289528789209190601f198d168a5b8181106200027f5750918493918e600080516020620015708339815191529c9d9e9f941062000265575b505050811b019055620001ae565b015160001960f88460031b161c1916905538808062000257565b82840151855593850193928a01928a016200022d565b848b52838a8c20918b82850160051c84019410620002d5575b0160051c019084905b828110620002c957508d91506200016d565b8b8155018490620002b7565b92508192620002ae565b634e487b7160e01b8a52602260045260248afd5b90607f169062000159565b634e487b7160e01b89526041600452602489fd5b0151905038806200012b565b8c80528b8d208794509190601f1984168e8e5b8282106200036b575050841162000351575b505050811b0189556200013f565b015160001960f88460031b161c1916905538808062000343565b8385015186558a979095019493840193018e62000331565b9091508b80528a8c208580850160051c8201928d8610620003cc575b918891869594930160051c01915b828110620003bd57505062000115565b8e8155859450889101620003ad565b925081926200039f565b634e487b7160e01b8b52602260045260248bfd5b93607f1693620000fe565b634e487b7160e01b600052604160045260246000fd5b885162461bcd60e51b81526004810187905260116024820152701c1b185d199bdc9b481c995c5d5a5c9959607a1b6044820152606490fd5b895162461bcd60e51b815260048101889052601060248201526f18dc99585d1bdc881c995c5d5a5c995960821b6044820152606490fd5b895162461bcd60e51b815260048101889052601060248201526f199858dd1bdc9e481c995c5d5a5c995960821b6044820152606490fd5b875162461bcd60e51b815260048101869052600f60248201526e1cdd5c1c1b1e481c995c5d5a5c9959608a1b6044820152606490fd5b875162461bcd60e51b815260048101869052600f60248201526e1cde5b589bdb081c995c5d5a5c9959608a1b6044820152606490fd5b875162461bcd60e51b815260048101869052600d60248201526c1b985b59481c995c5d5a5c9959609a1b6044820152606490fd5b600080fd5b6040519190601f01601f191682016001600160401b03811183821017620003f557604052565b919080601f84011215620005515782516001600160401b038111620003f557602090620005b2601f8201601f1916830162000556565b92818452828287010111620005515760005b818110620005da57508260009394955001015290565b8581018301518482018401528201620005c4565b51906001600160a01b0382168203620005515756fe608060408181526004918236101561001657600080fd5b600092833560e01c91826302d05d3f14610ac057508163044991d814610aa157816306fdde03146109c7578163095ea7b31461095657816318160ddd146109375781631e26906b1461091057816323b872dd146108095781632bebf6bf1461073f578163313ce56714610723578163351fee461461065f578163539aa77f1461064357816370a082311461060b5781639185f598146105ef57816395d89b41146104cc5781639e5f358a146104ae578163a9059cbb1461047d578163ae36f5c814610329578163c45a0155146102e5578163cc3cbd2a146102c9578163dc4b1c0e146101ff57508063dd62ed3e146101b7578063e1a452181461019b578063eb13554f146101585763f242ab411461012d57600080fd5b3461015457816003193601126101545760035490516001600160a01b039091168152602090f35b5080fd5b5034610154578160031936011261015457517f00000000000000000000000000000000000000000000000000000000000000006001600160a01b03168152602090f35b5034610154578160031936011261015457602090516127108152f35b5034610154578060031936011261015457806020926101d4610b4c565b6101dc610b67565b6001600160a01b0391821683526007865283832091168252845220549051908152f35b9050346102c557826003193601126102c557610245337f00000000000000000000000000000000000000000000000000000000000000006001600160a01b031614610bdf565b6003549160ff8360a01c1661028e57505060ff60a01b1916600160a01b17600355337f60b9765cf08f04b4850cd9a0f8da6fa9e854afd328723cc3f6adea6fb4f18d238280a280f35b906020606492519162461bcd60e51b83528201526011602482015270185b1c9958591e481c995b9bdd5b98d959607a1b6044820152fd5b8280fd5b50503461015457816003193601126101545760209051601e8152f35b505034610154578160031936011261015457517f00000000000000000000000000000000000000000000000000000000000000006001600160a01b03168152602090f35b8391503461015457602036600319011261015457610345610b4c565b6001600160a01b0390819061037d337f0000000000000000000000000000000000000000000000000000000000000000841614610bdf565b1691821561044a576003549160ff8360a01c166104075782166103d157506001600160a01b03191681176003557fc3cd203585fbc28dcc1692611d2ebc4190312a5b189047df793c69b157aa0d298280a280f35b606490602086519162461bcd60e51b8352820152601060248201526f1c185a5c88185b1c9958591e481cd95d60821b6044820152fd5b855162461bcd60e51b8152602081840152601960248201527f666163746f727920636f6e74726f6c2072656e6f756e636564000000000000006044820152606490fd5b606490602086519162461bcd60e51b8352820152600d60248201526c1c185a5c881c995c5d5a5c9959609a1b6044820152fd5b5050346101545780600319360112610154576020906104a761049d610b4c565b6024359033610c27565b5160018152f35b9050346102c557826003193601126102c55760209250549051908152f35b8383346101545781600319360112610154578051908260018054908160011c90600183169283156105e5575b60209384841081146105d2578388529081156105b65750600114610560575b505050829003601f01601f191682019267ffffffffffffffff84118385101761054d5750829182610549925282610b03565b0390f35b634e487b7160e01b815260418552602490fd5b600187529192508591837fb10e2d527612073b26eecdfd717e6a320cf44b4afac2b0732d9fcbe2b7fa0cf65b8385106105a25750505050830101858080610517565b80548886018301529301928490820161058c565b60ff1916878501525050151560051b8401019050858080610517565b634e487b7160e01b895260228a52602489fd5b91607f16916104f8565b5050346101545781600319360112610154576020905160328152f35b5050346101545760203660031901126101545760209181906001600160a01b03610633610b4c565b1681526006845220549051908152f35b5050346101545781600319360112610154576020905160148152f35b8383346101545781600319360112610154577f00000000000000000000000000000000000000000000000000000000000000006001600160a01b03811690338290036106f157846106c391602096549586926106bc841515610ba0565b5530610e42565b7fd046302bdc39599e60a5981e59227dcd1c643f512f56f2e984390c3ac6eadedb848351858152a251908152f35b825162461bcd60e51b8152602081870152600c60248201526b37b7363c9031b932b0ba37b960a11b6044820152606490fd5b5050346101545781600319360112610154576020905160128152f35b919050346102c557826003193601126102c5577f0000000000000000000000000000000000000000000000000000000000000000916001600160a01b03831690338290036107d657506107a860209460055494859161079f831515610ba0565b60055530610e42565b7f0636f1043cff5f4c437926a4412416778ddc5e970feb177685b587e81dad9095848351858152a251908152f35b606490602084519162461bcd60e51b8352820152600d60248201526c6f6e6c7920706c6174666f726d60981b6044820152fd5b919050346102c55760603660031901126102c557610825610b4c565b61082d610b67565b6044359160018060a01b03811680875260209560078752858820338952875285882054908582106108d85750948096976104a796866000198203610876575b5050505050610c27565b61087f91610b7d565b83825260078a528282203383528a528282205582815260078952818120338252895220549086519182527f8c5be1e5ebec7d5bd14f71427d1e84f3dd0314c0f7b2291e5b200ac8c7c3b925883393a3388581808661086c565b865162461bcd60e51b81529081018890526012602482015271185b1b1bddd85b98d948195e18d95959195960721b6044820152606490fd5b50503461015457816003193601126101545760209060ff60035460a01c1690519015158152f35b5050346101545781600319360112610154576020906002549051908152f35b50503461015457806003193601126101545760209181610974610b4c565b91602435918291338152600787528181209460018060a01b0316948582528752205582519081527f8c5be1e5ebec7d5bd14f71427d1e84f3dd0314c0f7b2291e5b200ac8c7c3b925843392a35160018152f35b83833461015457816003193601126101545780519082835460018160011c9060018316928315610a97575b60209384841081146105d2578388529081156105b65750600114610a4257505050829003601f01601f191682019267ffffffffffffffff84118385101761054d5750829182610549925282610b03565b8680529192508591837f290decd9548b62a8d60345a988386fc84ba6bc95484008f6362f93160ef3e5635b838510610a835750505050830101858080610517565b805488860183015293019284908201610a6d565b91607f16916109f2565b5050346101545781600319360112610154576020906005549051908152f35b8490346101545781600319360112610154577f00000000000000000000000000000000000000000000000000000000000000006001600160a01b03168152602090f35b6020808252825181830181905290939260005b828110610b3857505060409293506000838284010152601f8019910116010190565b818101860151848201604001528501610b16565b600435906001600160a01b0382168203610b6257565b600080fd5b602435906001600160a01b0382168203610b6257565b91908203918211610b8a57565b634e487b7160e01b600052601160045260246000fd5b15610ba757565b60405162461bcd60e51b815260206004820152601060248201526f6e6f7468696e6720746f20636c61696d60801b6044820152606490fd5b15610be657565b60405162461bcd60e51b815260206004820152600c60248201526b6f6e6c7920666163746f727960a01b6044820152606490fd5b91908201809211610b8a57565b6001600160a01b03808316939192908415610e0e57831692600091848352602092600684526040918282205490868210610dd857610c66908795610efa565b80610dcf575b610cc1575b90610c9e7fddf252ad1be2c89b69c2b068fc378daa952ba7f163c4a11628f55a4df523b3ef968493610b7d565b878252600686528282205587815220610cb8838254610c1a565b905551908152a3565b60328602861590878104603214821715610dbb576127108091049182610cea575b505050610c71565b90919550601e880290888204601e141715610dbb5788859493928b920485888a848d610d168685610b7d565b93610d2091610b7d565b9b8560045490610d2f91610c1a565b6004558360055490610d4091610c1a565b600555308a5260068352848a2081815490610d5a91610c1a565b9055845190815230927fddf252ad1be2c89b69c2b068fc378daa952ba7f163c4a11628f55a4df523b3ef91a381519283528a8301527f93bd139ea85d53c55e02dec709128f827ebd5cb8a4a0d873193711b70b0a15b991a390913880610ce2565b634e487b7160e01b84526011600452602484fd5b50851515610c6c565b835162461bcd60e51b815260048101879052600f60248201526e62616c616e636520746f6f206c6f7760881b6044820152606490fd5b60405162461bcd60e51b815260206004820152600c60248201526b7a65726f206164647265737360a01b6044820152606490fd5b60018060a01b038091169160009383855260066020526040852054818110610ebc577fddf252ad1be2c89b69c2b068fc378daa952ba7f163c4a11628f55a4df523b3ef93602093610e9584604094610b7d565b8789526006865283892055169586815220610eb1828254610c1a565b9055604051908152a3565b60405162461bcd60e51b81526020600482015260166024820152751a5b9cdd59999a58da595b9d08199959481d985d5b1d60521b6044820152606490fd5b6003546001600160a01b03908116918215610f2d5781168214928315610f21575b50505090565b16149050388080610f1b565b5050505060009056fea2646970667358221220c5cb74b2236009bdabcbe103cf29e158d33f78f1563cd239df947769f06fb56764736f6c63430008180033ddf252ad1be2c89b69c2b068fc378daa952ba7f163c4a11628f55a4df523b3efa2646970667358221220c05a09f9cfadebe9a7fcb9ee141923c1c349a3a4ad79578bd77ced84087d3fb364736f6c63430008180033",
  "linkReferences": {},
  "deployedLinkReferences": {}
}